:100000000C9434000C9451000C9451000C94510049
:100010000C9451000C9451000C9451000C9451001C
:100020000C9451000C9451000C9451000C9451000C
:100030000C9451000C9451000C9483000C945100CA
:100040000C9451000C9451000C9451000C945100EC
:100050000C9451000C9451000C9451000C945100DC
:100060000C9451000C94510011241FBECFEFD8E026
:10007000DEBFCDBF11E0A0E0B1E0E8EEF1E002C0EC
:1000800005900D92A030B107D9F711E0A0E0B1E0E2
:1000900001C01D92A430B107E1F70E9471000C94D9
:1000A000F2000C940000EF92FF920F931F939BB10C
:1000B0009F73982B9BB96115710571F07B0100E06E
:1000C00010E0C801B7010E94D0008BB18F738BB9CB
:1000D000C801B7010E94D0001F910F91FF90EF90CF
:1000E00008950E94A8000E94BC008AB1806C8AB961
:1000F00080E868EC70E00E94530080E468EC70E0F7
:100100000E945300F5CF1F920F920FB60F92112449
:100110008F939F93AF93BF938091000190910101C2
:10012000A0910201B09103010196A11DB11D809320
:10013000000190930101A0930201B0930301BF91CC
:10014000AF919F918F910F900FBE0F901F901895B8
:1001500080E090E020E80FB6F8942093610080934F
:1001600061000FBE88E10FB6F89480936000109292
:1001700060000FBE7894089515BC10920001109293
:100180000101109202011092030182E084BD16BCAD
:100190009AEF97BD18BC80936E0083E085BD0895EB
:1001A000AB01BC012FB7F89480910001909101013F
:1001B000A0910201B09103012FBF480F591F6A1F80
:1001C0007B1F2FB7F8948091000190910101A091BD
:1001D0000201B09103012FBF84179507A607B70747
:0801E00080F30895F894FFCFAD
:00000001FF
