:100000000C9434000C9451000C9451000C94510049
:100010000C9451000C9451000C9451000C9451001C
:100020000C9451000C9451000C9451000C9451000C
:100030000C9451000C9451000C94FB120C94510040
:100040000C9451000C9451000C9451000C945100EC
:100050000C9451000C9451000C9451000C945100DC
:100060000C9451000C94510011241FBECFEFD8E026
:10007000DEBFCDBF11E0A0E0B1E0E6E2FCE502C0EA
:1000800005900D92A439B107D9F711E0A4E9B1E0C8
:1000900001C01D92AC39B107E1F70E94D4120C9453
:1000A000112E0C940000CF93DF93BC018230910598
:1000B00010F462E070E0A0919A01B0919B01ED0113
:1000C000E0E0F0E040E050E021C0888199818617AF
:1000D000970769F48A819B81309719F09383828313
:1000E00004C090939B0180939A01FE0134C068176D
:1000F000790738F44115510519F08417950708F46C
:10010000AC01FE018A819B819C01E9012097E9F6FF
:1001100041155105A9F1CA01861B970B049708F4F4
:10012000BA01E0E0F0E02AC08D919C91119784170C
:100130009507F9F46417750781F412968D919C91D7
:100140001397309719F09383828304C090939B0197
:1001500080939A01FD0132964CC0CA01861B970B11
:10016000FD01E80FF91F6193719302978D939C93A2
:1001700040C0FD01828193819C01D9011097A1F6B5
:100180008091980190919901892B41F4809102010D
:1001900090910301909399018093980140910401FB
:1001A000509105014115510541F44DB75EB780915D
:1001B000000190910101481B590B20919801309149
:1001C0009901CA01821B930B8617970780F0AB0138
:1001D0004E5F5F4F8417950750F0420F531F5093A7
:1001E000990140939801F9016193719302C0E0E095
:1001F000F0E0CF01DF91CF910895CF93DF93009787
:1002000009F450C0EC0122971B821A82A0919A0136
:10021000B0919B01109709F140E050E0AC17BD0789
:1002200008F1BB83AA83FE0121913191E20FF31FF4
:10023000AE17BF0779F48D919C911197280F391F44
:100240002E5F3F4F3983288312968D919C9113978F
:100250009B838A834115510571F4D0939B01C09310
:100260009A0120C012968D919C911397AD01009731
:1002700011F0DC01D3CFFA01D383C28321913191F4
:10028000E20FF31FCE17DF0769F488819981280FE9
:10029000391F2E5F3F4FFA01318320838A819B8172
:1002A00093838283DF91CF910895A0E0B0E0EBE5E6
:1002B000F1E00C94E22DEC01A880B980CA80DB80CB
:1002C000A114B104C104D10441F484E2A82E89ED43
:1002D000B82E8BE5C82E87E0D82EC601B5012DE1DA
:1002E00033EF41E050E00E948C2D27EA31E440E0FA
:1002F00050E00E94BB2D7B018C01C601B5012DE1B0
:1003000033EF41E050E00E948C2DCA01B9012CEE80
:1003100034EF4FEF5FEF0E94BB2D6E0D7F1D801FEE
:10032000911F97FF04C061507040804090486883DF
:1003300079838A839B839B01AC015F77B901CA01F2
:10034000CDB7DEB7EAE00C94FE2D0E94550108956A
:1003500086E091E00E945501089560930601709334
:10036000070180930801909309010895A0E0B0E08F
:10037000ECEBF1E00C94E42D7C01EB018A016901C6
:1003800009C0CE012196F6010995F70181937F01FD
:100390000150104001151105A1F7CDB7DEB7E8E017
:1003A0000C94002EA0E0B0E0E8EDF1E00C94E42D18
:1003B000EC017B018A01690109C0CE012196F70198
:1003C00061917F01F6010995015010400115110559
:1003D000A1F7CDB7DEB7E8E00C94002E9C01F999A7
:1003E000FECF32BD21BDF89A80B508959C01F999E0
:1003F000FECF1FBA32BD21BD60BD0FB6F894FA9A88
:10040000F99A0FBE0895FC010190F081E02D258935
:10041000368985A196A18217930768F028173907B6
:10042000F9F4978987A1891730F09817C9F4908D4E
:1004300080A59817A8F081A592A52817390770F014
:100440002817390769F4978983A5981738F0981702
:1004500039F420E0908D84A5891718F021E001C0BF
:1004600020E0822F08950F931F93DC01142F022F99
:100470006031E8F4462F50E070E0FA0183E0F59532
:10048000E7958A95E1F7EA0FFB1F24A530E043705A
:10049000507081E090E002C0880F991F4A95E2F702
:1004A000282339231216130654F471E008C0603271
:1004B00010F070E004C0FC01E60FF11D76AD71177D
:1004C000D1F1603178F5262F30E01123B1F4F90134
:1004D00073E0F595E7957A95E1F7EA0FFB1F237036
:1004E000307081E090E002C0880F991F2A95E2F7F2
:1004F000809524A5822384A71BC0F90153E0F595BC
:10050000E7955A95E1F7EA0FFB1F2370307081E001
:1005100090E002C0880F991F2A95E2F724A5282BA6
:1005200024A706C0603220F4FD01E60FF11D16AFCE
:100530000023C9F002C00230B0F0262F30E0F901EC
:1005400043E0F595E7954A95E1F7EA0FFB1F237025
:10055000307081E090E002C0880F991F2A95E2F781
:1005600026A1282B26A31F910F910895AF92BF9229
:10057000CF92DF92EF92FF920F931F93CF93DF936F
:10058000EC01FF24EFE5AE2EB12CA80EB91E77E6E4
:10059000C72E72E0D72EC80ED91E63E0E62E01E00A
:1005A00010E077C0FE9CC0011124D601ED91FC91B2
:1005B000E80FF91F8081882309F46AC090E09C014C
:1005C0002074307087FF3FC0232B09F461C0418144
:1005D00085FF12C09AB1980102C0220F331F4A95BD
:1005E000E2F780E02115310509F481E089238AB919
:1005F0008BB1822B8BB910C03AB120E0C80102C088
:10060000880F991F4A95E2F7892B09F421E03223DC
:100610003AB98BB128232BB989B12181A801022EC7
:1006200002C0440F551F0A94E2F790E04823592373
:1006300002C0559547952A95E2F7CE01628120E0E8
:100640000E94330225C0232BC9F0418185FD0DC0D6
:100650003BB120E0C80102C0880F991F4A95E2F71C
:10066000892B09F421E0232308C02BB1C80102C063
:10067000880F991F4A95E2F7282B2BB92AB1C80198
:10068000018002C0880F991F0A94E2F7282B2AB92B
:10069000F394F5018081F81608F484CFDF91CF91AF
:1006A0001F910F91FF90EF90DF90CF90BF90AF9090
:1006B0000895AF92BF92CF92DF92EF92FF920F9385
:1006C0001F93CF93DF93EC0110E0BFE5CB2ED12C2D
:1006D000C80ED91EA7E6EA2EA2E0FA2EE80EF91EF1
:1006E00003E0F1E0AF2EB12C3BC0109FC0011124FC
:1006F000D701ED91FC91E80FF91F3081332379F197
:10070000832F807C803C59F589B12181A501022E7F
:1007100002C0440F551F0A94E2F790E04823592382
:1007200002C0559547952A95E2F7742F832F8F7D48
:10073000813C41F0823C71F0803C89F420E044230C
:1007400029F403C020E0413009F421E0CE016281A8
:10075000472F03C0CE01628121E00E9433021F5F58
:10076000F6018081181708F4C0CFDF91CF911F9157
:100770000F91FF90EF90DF90CF90BF90AF900895D2
:10078000AF92BF92CF92DF92EF92FF920F931F939F
:10079000DF93CF93CDB7DEB727970FB6F894DEBFC0
:1007A0000FBECDBF8C0170E0CB0153E0880F991FC5
:1007B0005A95E1F7861B970B01591D4FD801ED9112
:1007C000FC910F561240DE011196E80FF91F87E0E9
:1007D00001900D928150E1F729813D8103591D4F10
:1007E0008E819F81880F991FF801608171810D565C
:1007F0001240680F791F2223D1F02130C1F47B0110
:10080000CC24DD24A32EBB240FC0C801D7016C91DA
:1008100011964C9121E00E9433020894C11CD11C16
:10082000E2E0F0E0EE0EFF1ECA14DB0470F3279640
:100830000FB6F894DEBF0FBECDBFCF91DF911F91F1
:100840000F91FF90EF90DF90CF90BF90AF90089501
:100850008F929F92BF92CF92DF92EF92FF920F936F
:100860001F93DF93CF9300D000D00F92CDB7DEB7A8
:100870008C0170E0CB01880F991F880F991F860F9C
:10088000971F05591D4FD801ED91FC910B56124051
:10089000DE011196E80FF91F85E001900D9281505D
:1008A000E1F7BB8003591D4F8C819D81880F991FF3
:1008B000F801C080D1800D561240C80ED91EF60135
:1008C00080E05CC0DF019081992341F54181403196
:1008D000F0F450E0EE24FA0163E0F595E7956A95AF
:1008E000E1F7E00FF11F24A530E04370507081E084
:1008F00090E002C0880F991F4A95E2F72823392318
:10090000121613060CF03EC0EE24E3943BC04032B6
:10091000C0F5F801E40FF11DE6AC34C03296913019
:1009200061F511964C914031E0F450E060E0FA013D
:1009300033E0F595E7953A95E1F7E00FF11F24A52F
:1009400030E04370507081E090E002C0880F991F42
:100950004A95E2F7282339231216130654F461E06E
:1009600008C0403210F060E004C0F801E40FF11D4F
:1009700066ADEE24E394E62605C08F5F8B1508F480
:10098000A1CFEE24D60140E061E070E029C08C9157
:10099000823021F511968C91119790E0FC0123E0B3
:1009A000F595E7952A95E1F7E00FF11F26A130E0D4
:1009B00083709070FB0102C0EE0FFF1F8A95E2F773
:1009C0002E233F23121613064CF4FF24F394FE2427
:1009D000A60130E071E0872E912C3EC04F5F129649
:1009E0004B15A8F2FE2CF4CFDA018C91833089F5F7
:1009F00011962C91A22FB0E0FD0163E0F595E795EB
:100A00006A95E1F7CD0183709070B40102C0660F62
:100A1000771F8A95E2F7E00FF11F86A190E0862309
:100A2000972318161906ACF4203158F4FF2484A536
:100A300090E086239723181619065CF4FF24F3949C
:100A400008C0203210F0FF2404C0A00FB11FDE96B2
:100A5000FC903F5F4E5F5F4F3B1530F2FE14D9F0C4
:100A6000EE2417C0F6014081442321F4C8016181BE
:100A70004F2D07C0413041F44F25C801D6011196D2
:100A80006C9121E00E943302E394E2E0F0E0CE0EAC
:100A9000DF1EEB1438F30F900F900F900F900F9014
:100AA000CF91DF911F910F91FF90EF90DF90CF904A
:100AB000BF909F908F9008956F927F928F929F9298
:100AC000AF92BF92CF92DF92EF92FF920F931F935C
:100AD000DF93CF9300D000D00F92CDB7DEB77C016B
:100AE00070E0CB01880F991F880F991F860F971F01
:100AF0002BE632E0E20EF31ED701ED91FC9125E9E1
:100B00003DEFE20EF31EDE011196E80FF91F85E0BE
:100B100001900D928150E1F77B808DE692E0E80E26
:100B2000F91E8C819D81880F991FD701AD90BC90D3
:100B3000E3E9FDEFEE0EFF1EA80EB91EF50190E0F1
:100B40000BC0DF0180813296882329F411964C91E5
:100B5000403128F020C09F5F971598F323C050E0E4
:100B600060E0FA0133E0F595E7953A95E1F7EE0D8F
:100B7000FF1D24A530E04370507081E090E002C07A
:100B8000880F991F4A95E2F7282339231216130676
:100B900054F461E008C0403228F4F701E40FF11D7D
:100BA00066AD01C060E0D50140E001E010E02DC07D
:100BB0008C91863041F511968C91119790E0FC0153
:100BC00023E0F595E7952A95E1F7EE0DFF1D26A1A7
:100BD00030E083709070F80102C0EE0FFF1F8A951D
:100BE000E2F72E233F23121613066CF4462F4F5FB5
:100BF000842F8370833009F44C7FB50130E091E09D
:100C0000C92ED12C3DC04F5F1296471588F2462F52
:100C1000F4CFDB018C91873081F511962C91A22FB6
:100C2000B0E0FD0183E0F595E7958A95E1F7CD0108
:100C300083709070860102C0000F111F8A95E2F741
:100C4000EE0DFF1D86A190E0802391231816190652
:100C5000A4F4203150F440E084A590E08023912357
:100C60001816190654F441E008C0203210F040E094
:100C700004C0AE0DBF1DDE964C913F5F6E5F7F4F8F
:100C8000371538F2D50150E061E070E02BC08C914F
:100C9000883031F511968C9111978031C8F490E02D
:100CA000FC0103E0F595E7950A95E1F7EE0DFF1DD0
:100CB00024A530E083709070FB0102C0EE0FFF1F8F
:100CC0008A95E2F72E233F231216130674F008C00C
:100CD000803230F4F701E80FF11D86AD813029F044
:100CE0005F5F1296571598F204C110E8612E642ACE
:100CF000F50190E009C0DF0180813296813019F45E
:100D000011967C9104C09F5F9715A8F37FEFF501C2
:100D100090E00BC0DF0180813296853029F4119676
:100D20004C91403128F020C09F5F971598F323C065
:100D300050E060E0FA01B3E0F595E795BA95E1F788
:100D4000EE0DFF1D24A530E04370507081E090E06F
:100D500002C0880F991F4A95E2F7282339231216FB
:100D6000130654F461E008C0403228F4F701E40FA0
:100D7000F11D66AD01C060E0F50190E009C0DF0142
:100D800080813296843019F411968C9104C09F5F53
:100D90009715A8F38FEF6456680FF50190E00BC02C
:100DA000DF0180813296893029F411964C914031CF
:100DB00028F01EC09F5F971598F323C050E0FA01FA
:100DC000A3E0F595E795AA95E1F7EE0DFF1D24A5A3
:100DD00030E04370507081E090E002C0880F991FAE
:100DE0004A95E2F72823392312161306B4F009C0F6
:100DF000403238F4F701E40FF11D96AC992051F41C
:100E000001C09924262F30E0872F90E005972817FE
:100E1000390764F0F1E09F1659F49924262F30E049
:100E2000872F90E005968217930714F099249394E6
:100E300085018824C62CDD2423E0C222DD242EC0B7
:100E4000D8018C91893029F4C70111966C91492DF4
:100E50001FC08A3029F440E0C114D104B1F414C099
:100E60008B3059F440E0F1E0CF16D10409F441E0B1
:100E7000C701D80111966C910BC08C3061F440E031
:100E8000B2E0CB16D10409F441E0C701F801618159
:100E900021E00E94330283940E5F1F4F871480F27B
:100EA00090E00BC0F501808122E030E0A20EB31E7D
:100EB000882311F4618104C09F5F971598F36FEF49
:100EC000C701462D21E00E9433020F900F900F9032
:100ED0000F900F90CF91DF911F910F91FF90EF90A6
:100EE000DF90CF90BF90AF909F908F907F906F904A
:100EF0000895FFE76F2E6422FBCECF92DF92EF9230
:100F0000FF920F931F93CF93DF93DC01A15ABF4F42
:100F1000EC90AF55B040FF2460E070E037E6C32EA0
:100F200032E0D32ECA0EDB1E01E010E050C0F60105
:100F3000C081D181C60FD71F5881552309F444C001
:100F400057FD42C08A818031D8F490E040E0FC0136
:100F500023E0F595E7952A95E1F7EA0FFB1F24A515
:100F600030E083709070F80102C0EE0FFF1F8A9589
:100F7000E2F72E233F231216130654F441E008C073
:100F8000803210F040E004C0FD01E80FF11D46ADD5
:100F900056FF1AC08981442371F43AB120E0A801B8
:100FA00002C0440F551F8A95E2F74115510509F417
:100FB00021E0232308C02AB1F80102C0EE0FFF1F71
:100FC0008A95E2F72E2B2AB9F3946D5F7F4FFE14BA
:100FD00008F4ADCFDF91CF911F910F91FF90EF906B
:100FE000DF90CF9008952F923F924F925F926F9231
:100FF0007F928F929F92AF92BF92CF92DF92EF92A9
:10100000FF920F931F93DF93CF93CDB7DEB7A097D7
:101010000FB6F894DEBF0FBECDBF8C01992470E6E9
:10102000472E512C480E591E69E6662E62E0762E38
:10103000680E791E53E0852E1E010894211C311C78
:101040007BC025E0929EC0011124D301ED91FC915B
:10105000E80FF91F8081882309F46DC087FD6BC0FC
:101060005381852F90E098A38F8F9C0143E03595A5
:1010700027954A95E1F78370907061E070E002C0B7
:10108000660F771F8A95E2F7200F311FD9019696D8
:101090008C9190E086239723181619060CF04BC00C
:1010A000D801AD90BC90D5011B96CD90DC901C97DB
:1010B000E180F280E481503160F440E0D9019C96F7
:1010C0008C9190E086239723181619066CF441E062
:1010D0000BC0503210F040E007C08F8D98A1800FF8
:1010E000911FDC01DE964C91DA82C982FC82EB8290
:1010F0001D82B0EFBE838F825887E9874A87EDB79C
:10110000FEB77E970FB6F894FEBF0FBEEDBFADB72A
:10111000BEB71196F1018EE101900D928150E1F779
:10112000C5010E94041F8DB79EB74E960FB6F89466
:101130009EBF0FBE8DBF9394D2018C91981608F478
:1011400080CFA0960FB6F894DEBF0FBECDBFCF9173
:10115000DF911F910F91FF90EF90DF90CF90BF90A4
:10116000AF909F908F907F906F905F904F903F9047
:101170002F900895DF93CF93CDB7DEB76E970FB65C
:10118000F894DEBF0FBECDBFFC01E25AFF4F1082C4
:10119000EE55F04020813181D9011B968D919C91B3
:1011A0001C979A838983808991899C838B831D8274
:1011B0008AE88E8382E08F8380E8888719868DB7DE
:1011C0009EB74E970FB6F8949EBF0FBE8DBFADB7BA
:1011D000BEB71196FE0131968EE101900D928150BD
:1011E000E1F7C9010E94041FADB7BEB75E960FB606
:1011F000F894BEBF0FBEADBF6E960FB6F894DEBFBB
:101200000FBECDBFCF91DF9108956F927F928F92E5
:101210009F92AF92BF92CF92DF92EF92FF920F9385
:101220001F93DF93CF9300D000D00F92CDB7DEB7DE
:101230007C0170E0CB01880F991F880F991F860FE2
:10124000971F2BE632E0E20EF31ED701ED91FC91E1
:1012500025E93DEFE20EF31EDE011196E80FF91FBE
:1012600085E001900D928150E1F78B808DE692E050
:10127000E80EF91E8C819D81880F991FD701CD90B2
:10128000DC90E3E9FDEFEE0EFF1EC80ED91EF6015D
:1012900090E00BC0DF01808132968B3029F41196EB
:1012A0004C91403128F020C09F5F981598F323C0DF
:1012B00050E070E0FA01B3E0F595E795BA95E1F7F3
:1012C000EE0DFF1D24A530E04370507081E090E0EA
:1012D00002C0880F991F4A95E2F728233923121676
:1012E000130654F471E008C0403228F4F701E40F0B
:1012F000F11D76AD01C070E0F60190E00BC0DF019A
:10130000808132968A3029F411964C91403128F030
:1013100020C09F5F981598F323C050E060E0FA0169
:10132000A3E0F595E795AA95E1F7EE0DFF1D24A53D
:1013300030E04370507081E090E002C0880F991F48
:101340004A95E2F7282339231216130654F461E074
:1013500008C0403228F4F701E40FF11D66AD01C06A
:1013600060E0162F110F170FF60190E009C0DF01A2
:1013700080813296882319F411969C9005C09F5F56
:101380009815A8F399249A94A12EBB2411FF43C069
:10139000FFE0F915E8F0492D50E070E0FA0163E054
:1013A000F595E7956A95E1F7EE0DFF1D24A530E070
:1013B0004370507081E090E002C0880F991F4A95F9
:1013C000E2F728233923121613065CF471E009C0F2
:1013D0002FE1291510F470E004C0F701E90DF11DAB
:1013E00076AD472F50E0D701ED91FC91838D90E0D1
:1013F0009A012F7330708217930769F4872F807CCE
:1014000019F4012F0D7F08C07154C701692D472FB2
:1014100020E00E943302012FF60190E00BC0DF01B3
:1014200080813296893029F411964C91403128F010
:1014300020C09F5F981598F323C050E010E0FA0198
:1014400033E0F595E7953A95E1F7EE0DFF1D24A5FC
:1014500030E04370507081E090E002C0880F991F27
:101460004A95E2F7282339231216130654F411E0A3
:1014700008C0403228F4F701E40FF11D16AD01C099
:1014800010E0D60140E061E070E023C08C9188302C
:10149000F1F411968C91119790E0FC0123E0F59501
:1014A000E7952A95E1F7EE0DFF1D26A130E0837048
:1014B0009070FB0102C0EE0FFF1F8A95E2F72E230A
:1014C0003F23121613061CF481E0182704C04F5F57
:1014D00012964815D8F2C70169E0412F21E00E9419
:1014E0003302D60140E061E070E02BC08C91873080
:1014F00031F511968C9111978031C8F490E0FC0180
:1015000053E0F595E7955A95E1F7EE0DFF1D24A5FB
:1015100030E083709070FB0102C0EE0FFF1F8A95D0
:10152000E2F72E233F23121613067CF008C0803208
:1015300030F4F701E80FF11D86AD813031F04F5FD7
:101540001296481598F280E001C081E0113009F050
:10155000E1C0882309F0DEC0960150E041E0642E2E
:10156000712CD5C0D9018C91853009F04BC01196F2
:101570004C91A42FB0E0FD0193E0F595E7959A9585
:10158000E1F7CD0183709070B30102C0660F771F41
:101590008A95E2F7EE0DFF1D86A190E08623972342
:1015A000181619060CF0B0C0403150F410E084A5B4
:1015B00090E0862397231816190654F411E008C00A
:1015C000403210F010E004C0AE0DBF1DDE961C913D
:1015D000B3E0AB22BB2483E090E0811B9109A81605
:1015E000B90661F4C7016AE040E021E00E943302DD
:1015F0006AE070E080E090E00E9442131E5F0C7F82
:10160000012B77C0863009F07FC0F9014181A42FFA
:10161000B0E0FD0183E0F595E7958A95E1F7CD010E
:1016200083709070B30102C0660F771F8A95E2F74E
:10163000EE0DFF1D86A190E086239723181619064C
:101640000CF062C0403150F410E084A590E0862395
:1016500097231816190654F411E008C0403210F010
:1016600010E004C0AE0DBF1DDE961C91F3E0AF226A
:10167000BB2483E090E0811B9109A816B90661F4B0
:10168000C7016AE040E021E00E9433026AE070E0B6
:1016900080E090E00E9442131E5F0C7F012B1250ED
:1016A00041F5F60190E00AC0DF0180813296823078
:1016B00021F411962C9150E007C09F5F9815A0F37C
:1016C0002FEFF9CF505C2C532D33E0F7D701ED917C
:1016D000FC91338D832F90E0820F911DCD972CF0DC
:1016E000432F4C5F450F420F09C0452F420F430F58
:1016F00005C0D701ED91FC91438D4058C701692D7C
:1017000020E00E94330206C05F5F2E5F3F4F5815F6
:1017100008F428CFD60140E061E070E032C08C913F
:10172000833069F511968C91119790E0FC0113E0DC
:10173000F595E7951A95E1F7EE0DFF1D26A130E02E
:1017400083709070FB0102C0EE0FFF1F8A95E2F7D5
:101750002E233F231216130694F401FD0CC00360E0
:10176000D701ED91FC91438D4058C701692D20E0D0
:101770000E94330208C000FF06C00D7F04C04F5F07
:101780001296481560F2F60190E009C0DF018081F1
:1017900032968B3019F411966C9104C09F5F9815A6
:1017A000A8F36FEF402F4170C70121E00E94330280
:1017B00090E00BC0F601808122E030E0C20ED31E23
:1017C0008A3011F4618104C09F5F981598F36FEF20
:1017D000402F50E04270507055954795C70121E069
:1017E0000E9433020F900F900F900F900F90CF91A7
:1017F000DF911F910F91FF90EF90DF90CF90BF90FE
:10180000AF909F908F907F906F900895CF92DF92CE
:10181000EF92FF921F93CF93DF93EC0110E061E60C
:10182000C62ED12CC80ED91E5BE6E52E52E0F52E51
:10183000E80EF91E2AC0212F30E0C901880F991F38
:10184000880F991F820F931FD701ED91FC91E80F2C
:10185000F91F0190F081E02D3097B1F0E230F105F1
:1018600051F0E330F10561F0319771F4CE01612F51
:101870000E94280409C0CE01612F0E945C0504C0AB
:10188000CE01612F0E9405091F5FF60180811817A4
:1018900090F2DF91CF911F91FF90EF90DF90CF906A
:1018A00008952F923F924F925F926F927F928F9204
:1018B0009F92AF92BF92CF92DF92EF92FF920F93DF
:1018C0001F93CF93DF936C01DC01ED91FC91848930
:1018D000882309F4C8C0CF010E94C91AF60181A16A
:1018E0008F3FA1F0E2A0F3A004A115A10E94341340
:1018F000E616F7060807190748F4C601D6019196BF
:101900006C910E94C0038FEFF60181A3BB24F4E623
:101910002F2E312C2C0C3D1CE7E0AE2E7FE6472EFF
:1019200072E0572E4C0C5D1C7CC0BA9C3001112417
:10193000D201ED90FC90E60CF71CF7018081882322
:1019400009F46EC08181882E9924D601CD91DC9155
:1019500094012F713070898D90E02817390709F0B4
:101960005FC08281082F10E098012F7330708A8D3C
:1019700090E02817390709F053C0C6010E940302FE
:10198000882319F007FD6AC04BC02D893E8989A1C3
:101990009AA12817390709F04AC09F898BA1981787
:1019A00009F045C0988D8CA1981709F040C006FD3C
:1019B00055C036C0F60161A16F3F19F0C6010E9403
:1019C000C0030E9434137B018C01D201ED91FC9184
:1019D000E60DF71D818182958695877090E0E8E895
:1019E000F3E18E9FB0018F9F700D9E9F700D1124AB
:1019F000882777FD8095982F0E946E136E0D7F1DAE
:101A0000801F911FD60192966D937D938D939C9329
:101A100095979196BC9204C0C6016B2D0E94C0039D
:101A2000B394F1018081B81608F47FCF1CC020E088
:101A300030E081E090E00C8C02C0880F991F0A947E
:101A4000E2F71816190614F421E030E0D7011396D6
:101A50008C9190E028233923232B11F3882D807E4D
:101A600009F0A8CFD9CFDF91CF911F910F91FF90AF
:101A7000EF90DF90CF90BF90AF909F908F907F902E
:101A80006F905F904F903F902F900895CF92DF928C
:101A9000EF92FF920F931F93CF93DF93EC018C0192
:101AA000015A1F4FC80160E070E048E050E02EEEA0
:101AB00031E00E94B601CE01B80148E050E00E943A
:101AC0005A2C892B09F065C0B7E6CB2ED12CCC0E51
:101AD000DD1EC959DD4FD982C882C756D240F801F0
:101AE000008183E0089F8001112409591F4F9E0146
:101AF000200F311F07561040C759DD4F3983288307
:101B0000C950D240688185E0689FB0011124260F3A
:101B1000371FC55FDD4F39832883CA50D2404881C3
:101B2000489FA0011124240F351FC45FDD4F398366
:101B30002883CD56D240FE01E159FD4FCE59DF4FEB
:101B400089919991880F991F280F391F318320831C
:101B5000060F171F080F191F040F151F8881C45681
:101B6000D04027E0829FC0011124080F191FC60131
:101B700068E070E0A8012EEE31E00E94B601E88C2A
:101B8000F98CCE01B601A8010E945A2CE816F9067C
:101B900021F0CE010E94BA0809C0C25ADF4F81E08D
:101BA0008883CE55D040CE010E94B602DF91CF91FE
:101BB0001F910F91FF90EF90DF90CF9008950F93BA
:101BC0001F938C0181E0F801848F579A5F9A0E94DD
:101BD000341368517C4F8F4F9F4FF801658F768F7C
:101BE000878F90A38FEF81A3025A1F4FF8011082B5
:101BF0000E551040C8010E94460D1F910F91089587
:101C0000AF92BF92CF92DF92EF92FF920F931F930A
:101C10008C015FE5E52EF12CE80EF91E46EFA42EAF
:101C200041E0B42E80E090E0B70148E050E095013B
:101C30000E94D201F701E08083E0E89E7001112448
:101C4000005A1F4FF801808125E0829FC0011124B6
:101C5000E80EF91E0E5F1F4FF80180819181880FF9
:101C6000991FE80EF91E82918F01829FC0011124F5
:101C7000E80EF91E0D5F1F4FF801808104561040D9
:101C800027E0829FC0011124E80EF91E97E6C92EB5
:101C9000D12CC00ED11E88E090E0B601A7019501BD
:101CA0000E94D201C801B601A7010E945A2CF80176
:101CB000918F808F8EE0E82EF12CE00EF11EC8018E
:101CC000B7014CE050E00E945A2CF801938F828FAC
:101CD00082EE93E0B7014EE050E095010E94D20100
:101CE000C8010E94B602025A1F4F81E0F8018083AA
:101CF0001F910F91FF90EF90DF90CF90BF90AF902A
:101D000008952F923F924F925F926F927F928F929F
:101D10009F92AF92BF92CF92DF92EF92FF920F937A
:101D2000DF93CF93CDB7DEB7A0970FB6F894DEBFA1
:101D30000FBECDBF4C015BAC6CAC4DAD5EAD6FADBD
:101D400022967FAC229721967FAD219723963FADB7
:101D5000239724962FAD2497FC01118E108E052D0C
:101D60000F77023009F4ADC0033030F4002371F076
:101D7000013009F025C18CC0043009F4DFC0043003
:101D800008F4BEC0053009F01BC1EBC0815A9F4F5B
:101D900098A38F8FFC014083F0E6EF2EF12CE80C26
:101DA000F91CF7015083E1E6CE2ED12CC80CD91CCA
:101DB000F601608352E6A52EB12CA80CB91C972D14
:101DC00080E0870F911DF5019183808384E690E088
:101DD000880E991EF40130832CE93FEF820E931E8A
:101DE000C4016F8D78A146E050E00E945A2CE5E6D0
:101DF000F0E08E0E9F1EF401918380832BE93FEF6C
:101E0000820E931EF401E959FD4F87E690E0880E9B
:101E1000991E91828082E9E9FFEF8E0E9F1EEF8D61
:101E2000F8A1808123E0829FC001112489599F4F2E
:101E3000880D991D29E632E0820E931EF4018193EC
:101E400091934F01F701408165E0469FA001112465
:101E5000480F591FF401419351934F01F60120811E
:101E6000269F90011124240F351FF40121933193F3
:101E70004F01F50180819181880F991F280F391F2B
:101E8000F4013183208321E93DEF820E931E98C037
:101E900083E0689EC0011124D401A959BD4FED9182
:101EA000FC911197E80FF91F4083ED91FC91119778
:101EB000E80FF91F5183ED91FC91E80FF91F628340
:101EC0007FC025E0629E90011124DC01A759BD4F1F
:101ED000ED91FC911197E20FF31F4083ED91FC917E
:101EE0001197E20FF31F962F80E0850F911D9283CB
:101EF00081837383ED91FC91E20FF31F748260C0C4
:101F000025E0629E90011124DC01A559BD4FED91A1
:101F1000FC911197E20FF31F952F80E0840F911D24
:101F2000918380836283ED91FC91E20FF31F972DE3
:101F300080E0870F911D9483838342C0862D90E0BB
:101F4000880F991FD401A359BD4FED91FC911197B2
:101F5000E80FF91F4083ED91FC91E80FF91F5183C1
:101F60002FC087E0689EC0011124D401A159BD4F44
:101F7000ED91FC911197E80FF91F4083ED91FC91D1
:101F80001197E80FF91F5183ED91FC911197E80F1C
:101F9000F91F6283ED91FC911197E80FF91F73838C
:101FA000ED91FC911197E80FF91F7482ED91FC916E
:101FB000E80FF91F922F80E0830F911D9683858390
:101FC00057FE82C0F401A080B180F50123843484DF
:101FD000F40140885188462D4F5FA1E6CA2ED12CCE
:101FE000C80CD91CF2E6EF2EF12CE80CF91CB40158
:101FF0006C597F4FD401A15ABF4FE0E66E2E712C71
:10200000680C791C0330D9F0043030F4013051F001
:10201000023009F054C00CC00430B9F0053009F0AA
:102020004EC01DC08C91481708F049C091E01CC0FB
:10203000F3018081481708F042C092E015C0F60114
:1020400080814817E0F593E00FC0242F30E0F701BE
:10205000808191812817390790F594E005C0FB0134
:102060008081481760F595E03A8229825C824B8234
:102070001D828AE88E8382E08F83498790689887E3
:102080002DB73EB72E5130400FB6F8943EBF0FBE6D
:102090002DBFADB7BEB71196FE0131968EE101900E
:1020A0000D928150E1F7C5010E94041F8DB79EB7C4
:1020B0004E960FB6F8949EBF0FBE8DBF08C00F5F3F
:1020C00040E0063008F49ECFC4010E94000EA096A6
:1020D0000FB6F894DEBF0FBECDBFCF91DF910F9149
:1020E000FF90EF90DF90CF90BF90AF909F908F9038
:1020F0007F906F905F904F903F902F9008952F9218
:102100003F924F925F926F927F928F929F92AF9287
:10211000BF92CF92DF92EF92FF920F931F93DF93C4
:10212000CF93CDB7DEB7C654D0400FB6F894DEBF1C
:102130000FBECDBF8C018FAF21961FAF21979C01A1
:10214000215A3F4F3EAF2DAF805A9F4F23969FAFEE
:102150008EAF239769E6662E62E0762E600E711EC2
:1021600058E0852E912C8C0E9D1EF801E359FD4FF1
:102170002596FFAFEEAF2597980125593D4F27963D
:102180003FAF2EAF27974FE6242E42E0342E200E8D
:10219000311E37E6432E32E0532E400E511E92C1BF
:1021A000F80160817181CE0101960E9407278E811E
:1021B0008B38C9F18C3830F4873879F08A3809F0D7
:1021C00081C1EBC0803F39F0813F09F485C0823B7B
:1021D00009F078C188C0DD2476C0F80122893389EE
:1021E000F401808191812817390749F4F801268983
:1021F0003789F401848195812817390731F08FAD33
:1022000021969FAD21970E94812CF801208D318D60
:10221000F401868197812817390709F453C1C80151
:102220000E94BA084FC12DB73EB72E5130400FB6AD
:10223000F8943EBF0FBE2DBFADB7BEB71196FE01DD
:1022400031968EE101900D928150E1F7C8010E9414
:10225000810E9AC0E5E0DE9EC0011124F301A08149
:10226000B181A80FB91F8C91882361F1482F87FF96
:1022700029C011962D913C91129789819A818217DC
:10228000930719F02F5F3F4FE9F4F80180819181A6
:102290002B813C81FC01838594852817390711F037
:1022A00046FF10C0988513968C911397981751F498
:1022B000698514968C91681729F4C8014A8521E034
:1022C0000E943302D3942396EEADFFAD2397808115
:1022D000D81608F4BFCFF6C0C8016885498522E04A
:1022E0000E943302EFC0F801A080B180F501A38500
:1022F000B48569817A8158855031E8F4852F90E062
:1023000040E0FC0123E0F595E7952A95E1F7E00F21
:10231000F11F24A530E083709070E1E0F0E002C08E
:10232000EE0FFF1F8A95E2F72E233F2312161306A6
:1023300054F441E008C0503210F040E004C0F8010D
:10234000E50FF11D46ADB8A3AF8F7AA369A31BA219
:10235000F2EFFCA382E08DA35EA34FA32DB73EB79F
:102360002E5130400FB6F8943EBF0FBE2DBFADB713
:10237000BEB71196FE017F968EE101900D928150BD
:10238000E1F7C5010E94041F8DB79EB74E960FB6A8
:10239000F8949EBF0FBE8DBF95C0F801608171811A
:1023A000FB018385948598A38F8F89819A819AA355
:1023B00089A31BA2FBE8FCA32885223001F123306E
:1023C00030F4222361F0213009F04BC00BC02430DF
:1023D00069F12430D8F0253009F043C036C0EDACA7
:1023E000FEAC3DC0898533E0839FC0011124F2011A
:1023F000E080F180E80EF91E53E0C52E32C08985D9
:10240000F5E08F9FC0011124F30109C08985F5E033
:102410008F9FC00111242796EEADFFAD2797E08076
:10242000F180E80EF91E45E0C42E1BC0898590E0BE
:10243000880F991F2596EEADFFAD2597E080F180BE
:10244000E80EF91EB2E0CB2E0CC08985F7E08F9F15
:10245000C0011124F101E080F180E80EF91EA6E030
:10246000CA2EF2E0CF0ECDA23EEFC30E2EA3898579
:102470008FA34E2DDE0198969701F90102C081913C
:102480008D938E2F841B8C15D0F38DB79EB74E97EE
:102490000FB6F8949EBF0FBE8DBFADB7BEB71196F5
:1024A000FE017F968EE101900D928150E1F7CB0104
:1024B0000E94041FEDB7FEB77E960FB6F894FEBFDC
:1024C0000FBEEDBFF801808191810E94F82688231C
:1024D00009F066CECA5BDF4F0FB6F894DEBF0FBEC1
:1024E000CDBFCF91DF911F910F91FF90EF90DF90C3
:1024F000CF90BF90AF909F908F907F906F905F90A4
:102500004F903F902F900895CF93DF93EC01A895C3
:10251000888199810E942D1C0E9434132D8D3E8D3F
:102520004F8D58A12617370748075907A0F48C8DFF
:1025300091E089278C8F882319F48BB11BB801C0D7
:102540005F9A0E94341368517C4F8F4F9F4F6D8F5D
:102550007E8F8F8F98A31EA21FA218A619A61AA657
:102560001BA6C25ADF4F8881CE55D040882331F058
:10257000CE010E945903CE010E94510CCE010E944F
:102580007F10C25ADF4F8881CE55D040882349F052
:10259000CE010E94060CCE010E94F307CE010E94DC
:1025A0007D07DF91CF910895FF920F931F93DF93E3
:1025B000CF93CDB7DEB7C157D2400FB6F894DEBF88
:1025C0000FBECDBF0E9420138E010F5F1F4FC801A9
:1025D0000E948D2CC8010E94DF0DF02E012F8F2D3F
:1025E000902F0E948412FBCF08950E9453000895FB
:1025F0000E94530008951F920F920FB60F9211245C
:102600008F939F93AF93BF93809194019091950185
:10261000A0919601B09197010196A11DB11D8093E3
:10262000940190939501A0939601B0939701BF9167
:10263000AF919F918F910F900FBE0F901F901895A3
:1026400015BC10929401109295011092960110926F
:10265000970182E084BD16BC9AEF97BD18BC8093A9
:102660006E0083E085BD08958FB7F89420919401A2
:102670003091950140919601509197018FBFB9011A
:10268000CA010895AB01BC012FB7F8948091940161
:1026900090919501A0919601B09197012FBF480F9D
:1026A000591F6A1F7B1F2FB7F89480919401909156
:1026B0009501A0919601B09197012FBF84179507BE
:1026C000A607B70780F30895019739F0880F991F7F
:1026D000880F991F02970197F1F70895EF92FF92E3
:1026E0000F931F937B018C01611571058105910585
:1026F00029F420E030E040E050E00BC00E94A80147
:10270000A80197010E948C2DAC01CB01DA019C013C
:10271000AD01B901CA011F910F91FF90EF9008958B
:102720000F931F93CF93DF93EC01162F00E081E00E
:1027300090E00E946413AA81BB81ED91FC911197F6
:10274000612F661F6627661F0190F081E02DCD0185
:102750000995110F81E090E00E946413A881B9816E
:10276000ED91FC9111970190F081E02DCD0161E098
:102770000995AC81BD81ED91FC9111970190F0819B
:10278000E02DCD010995182B81E090E00E946413A3
:10279000A881B981ED91FC9111970190F081E02D14
:1027A000CD0160E0099581E090E00E9464130F5F25
:1027B000083009F0BCCF812FDF91CF911F910F918D
:1027C0000895CF92DF92EF92FF920F931F93CF93D2
:1027D000DF937C01162FD42E052FC22E60320CF40D
:1027E0001062F701A681B781ED91FC9111970190DC
:1027F000F081E02DCD0160E00995C701612F0E94B5
:1028000090132D2D302FC901EC0104C06991C7012F
:102810000E9490139E012D192C15C0F3D701169616
:10282000ED91FC911797A081B1812D913C91CF0141
:1028300061E0F9010995DF91CF911F910F91FF9010
:10284000EF90DF90CF900895AB0160E125E00E940A
:10285000E1130895AB016BE025E00E94E1130895B8
:10286000AB016AE025E00E94E1130895CF92DF9268
:10287000EF92FF920F931F93CF93DF937C01162F5C
:10288000D42E052FC22EFC01A681B781ED91FC91BB
:1028900011970190F081E02DCD0160E00995C7010D
:1028A000612F0E9490132D2D302FC901EC0105C01E
:1028B000C70160E00E94901389939E012D192C1589
:1028C000B8F3D7011696ED91FC911797A081B181CD
:1028D0002D913C91CF0161E0F9010995DF91CF91F4
:1028E0001F910F91FF90EF90DF90CF900895FF928E
:1028F0000F931F938C01F62EFC01A681B781ED91F9
:10290000FC9111970190F081E02DCD0160E00995D7
:10291000C8016F2D0E949013C80160E00E949013BF
:10292000F82EF801A681B781ED91FC9111970190E5
:10293000F081E02DCD0161E009958F2D1F910F9160
:10294000FF90089567E00E94771490E09595879531
:102950008770089567E10E947714817008950F933E
:102960001F93CF93DF93EC01162F042F603208F4EE
:102970001062AE81BF81ED91FC9111970190F081C1
:10298000E02DCD0160E00995CE01612F0E949013EA
:10299000CE01602F0E949013AE81BF81ED91FC911A
:1029A00011970190F081E02DCD0161E00995DF9153
:1029B000CF911F910F9108950F931F93CF93DF93A2
:1029C000EC01162F042F413208F000E2CE016CE139
:1029D0000E947714282F002359F481E090E0012E03
:1029E00002C0880F991F0A94E2F7422F482B0BC0B0
:1029F00081E090E0012E02C0880F991F0A94E2F74F
:102A0000482F40954223CE016CE10E94AF141F5E17
:102A1000CE01612F402F0E94AF14DF91CF911F9103
:102A20000F9108950F931F93CF93DF93EC01162F0F
:102A3000042F61E00E947714282F163008F015E06B
:102A4000002351F081E090E002C0880F991F1A9591
:102A5000E2F7422F482B0AC081E090E002C0880FC5
:102A6000991F1A95E2F7482F40954223CE0161E065
:102A70000E94AF14DF91CF911F910F9108951F9382
:102A8000CF93DF93EC01162FA885B985ED91FC91CA
:102A900011970190F081E02DCD0160E00995CE0104
:102AA00066E00E947714482F477F123008F0486094
:102AB000CE0166E00E94AF14E885F985A081B1815E
:102AC0002D913C91CF0161E0F9010995DF91CF9102
:102AD0001F910895462F4E7765E00E94AF14089528
:102AE0000F931F938C0161EE40E00E94AF14C80168
:102AF00067E00E947714482FC80167E00E94AF1476
:102B0000F801A085B185ED91FC9111970190F081BC
:102B1000E02DCD0160E00995C80160E00E947714C6
:102B2000482F4E7F4260C80160E00E94AF14F80158
:102B3000A085B185ED91FC9111970190F081E02D78
:102B4000CD0161E009951F910F9108950F931F9397
:102B50008C0162EE40E00E94AF14C80167E00E9461
:102B60007714482FC80167E00E94AF14F801A085D0
:102B7000B185ED91FC9111970190F081E02DCD018F
:102B800060E00995C80160E00E947714482F436017
:102B9000C80160E00E94AF14F801A085B185ED91F5
:102BA000FC9111970190F081E02DCD0161E0099534
:102BB0001F910F910895CF92DF92EF92FF920F93A2
:102BC0001F938C0167E00E947714C82EC80160E54E
:102BD00043E50E94AF14C80167E00E947714E82E15
:102BE000C80160E543E50E94AF1480E0FF24DD24C6
:102BF000EC24FD2490E8E916F10409F481E01F912A
:102C00000F91FF90EF90DF90CF9008951F93CF9397
:102C1000DF93EC01162F67E00E94771487FF03C053
:102C2000112319F007C0112329F0CE0160E543E517
:102C30000E94AF14DF91CF911F910895AF92BF9280
:102C4000DF92EF92FF920F931F93DF93CF93CDB755
:102C5000DEB72C970FB6F894DEBF0FBECDBF7C0158
:102C600061E00E94061603E211E0DD245E01089493
:102C7000A11CB11C07C007E411E05E010894A11C6F
:102C8000B11C3DC0F80181919191A191B1918F0149
:102C90008983292F3A2F4B2F55272A839D014427BB
:102CA00055272B838B2F9927AA27BB278C83C701F6
:102CB0006D2DA50124E00E94E113D394F9E0DF1605
:102CC00009F7D9CFDB01CA01022E04C0B695A7953A
:102CD000979587950A94D2F78193285030408FEFCB
:102CE000283F380779F7C7016D2DA50124E00E9420
:102CF000E113D3940C5F1F4FEEE0DE1649F0F801AC
:102D00004081518162817381F50128E130E0DACFA1
:102D1000C7016EE04BE551E02BE00E94E1138EE924
:102D20008A8386E88B838BE08C838FEF8983C7014E
:102D300064E0A50124E00E94E1138981897F8983F1
:102D4000C70164E0A50124E00E94E113C70160E02F
:102D50000E9406162C960FB6F894DEBF0FBECDBFAC
:102D6000CF91DF911F910F91FF90EF90DF90BF9077
:102D7000AF9008950F931F93CF93DF938C01FC01C5
:102D8000A081B181ED91FC9111970280F381E02D3A
:102D9000CD010995F801A281B381ED91FC911197C4
:102DA0000280F381E02DCD010995F801A481B58160
:102DB000ED91FC9111970280F381E02DCD010995F1
:102DC000F801A681B781ED91FC9111970280F38102
:102DD000E02DCD010995F801A085B185ED91FC911B
:102DE00011970280F381E02DCD010995F801A085AE
:102DF000B185ED91FC9111970190F081E02DCD010D
:102E000060E00995F801A681B781ED91FC911197D9
:102E10000190F081E02DCD0161E00995F801A081DC
:102E2000B181ED91FC9111970190F081E02DCD01E0
:102E300060E00995F801A281B381ED91FC911197B1
:102E40000190F081E02DCD0160E0099562E370E032
:102E500080E090E00E944213C80160E00E940616E4
:102E6000CAE0D1E0C801688149810E94AF1422966E
:102E7000F1E0CE31DF07B1F7C8016EE171E00E94E9
:102E80003014C8016EE171E00E942A14C8016EE19D
:102E900071E00E942414C8016DE10E947714882318
:102EA00029F4C80160E543E70E94AF14C8016CE152
:102EB0004FE30E94AF14C8016DE147E00E94AF14D8
:102EC000C80160E040E00E94DC14C80161E040E01D
:102ED0000E94DC14C8010E941E1662E370E080E0CC
:102EE00090E00E944213DF91CF911F910F910895BE
:102EF00020E0FC0182819381892B09F421E0822F5B
:102F00000895DF93CF93CDB7DEB7FC018081918127
:102F10009C0155E0220F331F5A95E1F7880F991F46
:102F2000281B390B46815781420F531F9E012B5F8F
:102F30003F4F8EE1D9010D909D01DA010D92AD0157
:102F40008150C1F7208131818481958101972817B3
:102F5000390728F42F5F3F4F3183208302C011824D
:102F6000108222813381848195812817390720F4CA
:102F70002F5F3F4F33832283CF91DF910895CF920C
:102F8000DF92EF92FF920F931F93CF93DF93EC01A9
:102F9000DB0112964D915C9113974115510509F48F
:102FA00043C08D919C918417950720F09C01241BB0
:102FB000350B07C0FB0124813581241B350B280FFD
:102FC000391FC901F5E0880F991FFA95E1F7220F23
:102FD000331F821B930BDB011696ED91FC91179723
:102FE000E80FF91FE080F18002811381C480D58051
:102FF0009681DE011796292F30E0295F3F4F2C0F75
:103000003D1F02C086818D933196A217B307D1F779
:10301000F982E8821B830A83CC82DD829E83415041
:103020005040FB0153834283CE01DF91CF911F912A
:103030000F91FF90EF90DF90CF9008950F931F9323
:103040008C01FC01118210821382128264837583C9
:103050009B01CB01B5E0880F991FBA95E1F7220FCC
:10306000331F821B930B0E94F512F801978386830E
:103070001F910F910895AF92BF92CF92DF92EF927E
:10308000FF920F931F93CF93DF93DC01FB0189E243
:1030900090E09C01429FC001439F900D529F900D74
:1030A00011240190F081E02DE80FF91FA580E68042
:1030B000F780008511856285738544855585B684C2
:1030C000C784D0889189EF01FD013D96292F30E01A
:1030D000235F3F4F2A0F3B1F02C0898981932196AE
:1030E000E217F307D1F71C969C931C971B96DC9272
:1030F0001B971A96CC921A971996BC921997189604
:103100005C934E93179716967C936E93159714962F
:103110001C930E9313971296FC92EE921197AC9219
:10312000CD01DF91CF911F910F91FF90EF90DF9034
:10313000CF90BF90AF900895FC0189E290E09C0190
:10314000629FC001639F900D729F900D11240190AA
:10315000F081E02DE80FF91F468317820895DC0106
:1031600040E050E020E030E010C0ED91FC9111977C
:10317000E20FF31F8081882321F08685861709F4EA
:1031800010824F5F5F4F275D3F4F12968D919C914C
:1031900013974817590748F30895BF92CF92DF92CB
:1031A000EF92FF920F931F93DC0189E290E0689FFA
:1031B0009001699F300D789F300D1124ED91FC91A5
:1031C0001197E20FF31FB080BB2011F1442319F0D7
:1031D000BA94B082B3940D911C91020F131F0E94F8
:1031E00034136B017C016B2D70E0660F771F88EE46
:1031F00093E00E94572D882777FD8095982F6C0DBE
:103200007D1D8E1D9F1DF8016183728383839483CE
:103210001F910F91FF90EF90DF90CF90BF90089596
:10322000EF92FF920F931F93FC0189E290E09C01C3
:10323000629FC001639F900D729F900D11240190B9
:10324000F081E02DE80FF91F8081882311F420E040
:103250000DC0E180F280038114810E94341320E0CC
:10326000E616F7060807190708F421E0822F1F91D8
:103270000F91FF90EF9008952F923F924F925F929F
:103280006F927F928F929F92AF92BF92CF92DF9276
:10329000EF92FF920F931F93DF93CF9300D00F9283
:1032A000CDB7DEB76C01388C498C5A8C6B8C7C8C1A
:1032B0008D8C9E8CAF8CB8A029A08AA18B83ABA1EA
:1032C000AA83BCA1B983F6016281738120E030E05A
:1032D000EE24FF2460C0D601ED91FC911197EE0D14
:1032E000FF1DA701475D5F4F8081882309F050C013
:1032F0008CAD80830D911C910E0D1F1D0E94341307
:10330000F8016183728383839483D601ED91FC91EC
:103310001197EE0DFF1D3582ED91FC911197EE0D89
:10332000FF1D578246827186608693868286B586A7
:10333000A4862686ED91FC91EE0DFF1DBB81B7871B
:10334000D601ED91FC91EE0DFF1DBA81B08BD60137
:10335000ED91FC91EE0DFF1DB981B18B90E09E01C6
:103360002B5D3F4F0AC0E92FF0E0AE0FBF1FE20F09
:10337000F31F808152968C939F5FF601A081B181EB
:10338000AE0DBF1D51968C915197981760F307C0F1
:103390002F5F3F4F7A012617370708F49CCF0F9015
:1033A0000F900F90CF91DF911F910F91FF90EF90B1
:1033B000DF90CF90BF90AF909F908F907F906F9055
:1033C0005F904F903F902F900895DF93CF93CDB7AC
:1033D000DEB7AC018DB79EB785970FB6F8949EBF48
:1033E0000FBE8DBF2DB73EB72F5F3F4FD901FE01F6
:1033F000359684E201900D928150E1F785E0F90164
:1034000084A3CA010E943C198DB79EB785960FB65A
:10341000F8949EBF0FBE8DBFCF91DF9108950F939B
:103420001F93CF93DF938C01DC0112966C9312975C
:1034300013967C93EB0189E290E0FC016E9FC00142
:103440006F9F900D7E9F900D11240E94F512D80160
:103450008D939C9320E030E080E090E009C0D8019B
:10346000ED91FC91E80FF91F10822F5F3F4F899675
:103470002C173D07A0F3DF91CF911F910F91089575
:10348000CF93DF93DC01EB016D917C91119740E0CC
:1034900050E020E030E011C01296ED91FC911397BE
:1034A000E20FF31F2D5F3F4F808191818C179D07A5
:1034B00011F4828106C04F5F5F4F4617570760F3D4
:1034C0008FEFDF91CF9108951F93CF93DF93EC019E
:1034D000142F48815981A0E0B0E020E030E00CC01A
:1034E000EA81FB81E20FF31F2D5F3F4F80819181C5
:1034F00086179707A9F01196A417B50788F320E05F
:1035000030E080E090E011C0EA81FB81E80FF91F14
:10351000DC01139680819181892B21F47183608372
:10352000128306C02F5F3F4FCD012417350760F38C
:10353000DF91CF911F9108950F931F93CF93DF9346
:103540008C01DC016C9311967C93EB01CB01880F0D
:10355000991F860F971F0E94F512F80193838283AB
:1035600020E030E080E090E00CC0D8011296ED91B0
:10357000FC911397E80FF91F118210822F5F3F4FC4
:1035800003962C173D0788F3DF91CF911F910F9180
:103590000895AF92BF92CF92DF92EF92FF920F9376
:1035A0001F93CF93DF93EC010E9434135B016C01F6
:1035B0008D8D9E8DAF8DB8A1A6019501281B390B6D
:1035C0004A0B5B0BCA01B90128EE33E040E050E042
:1035D0000E946A2D79018A01E114F10401051105A7
:1035E00009F4A5C0AD8EBE8ECF8ED8A2C801B7019A
:1035F0002CE330E040E050E00E946A2D2B8DCB019F
:10360000820F911D5B01CC24DD24CC9728F4260F7A
:103610002B8FC801B70109C02C53260F2B8FC8016F
:10362000B701645C7F4F8F4F9F4F6A197B098C09EC
:103630009D092CE330E040E050E00E946A2D7901C2
:103640008A01E114F1040105110509F470C0C801F3
:10365000B7012CE330E040E050E00E946A2D2A8D53
:10366000CB01820F911D5B01CC24DD24CC9728F483
:10367000260F2A8FC801B70109C02C53260F2A8FA5
:10368000C801B701645C7F4F8F4F9F4F6A197B0958
:103690008C099D092CE330E040E050E00E946A2D47
:1036A00079018A01E114F1040105110509F43FC013
:1036B000C801B70128E130E040E050E00E946A2DE7
:1036C000298DCB01820F911D5B01CC24DD2448970D
:1036D00028F4260F298FC801B70109C02851260FE9
:1036E000298FC801B701685E7F4F8F4F9F4F6A19BE
:1036F0007B098C099D0928E130E040E050E00E9400
:103700006A2DB901CA01611571058105910579F02C
:1037100027E030E040E050E00E946A2D2C8DCB0184
:10372000820F911D079708F02750260F2C8FDF91ED
:10373000CF911F910F91FF90EF90DF90CF90BF90AE
:10374000AF900895EF92FF920F931F938C017B012E
:10375000DC011A966C91C70170E00E944229F801C1
:10376000828590E0880F991F0084F185E02DE80F95
:10377000F91FF182E082D8011A968C911A978F5F17
:103780001A968C931F910F91FF90EF9008957F925E
:103790008F929F92AF92BF92CF92DF92EF92FF9261
:1037A0000F931F93DF93CF93CDB7DEB78C016B01DF
:1037B000EA88FB88A888B9887C888D889E888FEFE6
:1037C000E8168FEFF80621F4F801F282E18209C0D1
:1037D000FB0180819181B7010E949C28F8019283AE
:1037E0008183F60163857485A114B10421F4F80185
:1037F0007683658303C0F801B682A582FE017796C1
:10380000D8011D96292D30E0295F3F4F80E190E0DF
:103810008C0F9D1F280F391F02C081918D93E217D5
:10382000F307D9F7F801948681E083878286718651
:10383000F086E782748363838FEF8083C801CF9122
:10384000DF911F910F91FF90EF90DF90CF90BF908D
:10385000AF909F908F907F9008956F927F928F92FC
:103860009F92AF92BF92CF92DF92EF92FF920F930F
:103870001F93DF93CF93CDB7DEB7A4970FB6F8941D
:10388000DEBF0FBECDBF7C01CC24DD243E010894F9
:10389000611C711CCAC0CF01B6010E941019882397
:1038A00009F4C0C0D70114966D917C911597C3019E
:1038B000A6010E943B1889800A811B81A884B984D3
:1038C000BFEFAB16BFEFBB06A9F10115110541F023
:1038D000EFEF0F3F1E0771F1FFEF8F1609F066C083
:1038E000D7018D919C91B5010E9477288823D1F052
:1038F000F70180819181B5010E94C428882ED701EB
:103900008D919C91B5010E949C288C01F7018481C6
:103910009581B601402F0E949C18FFEF0F3F1F07B3
:1039200049F044C0D70114968D919C911597B6012A
:1039300040E076C0992434C0892D90E0880F991F0B
:10394000D7011896ED91FC911997E80FF91F208186
:103950003181D901ED91FC914281538189821B8390
:103960000A83B986A886EDB7FEB7B4970FB6F89468
:10397000FEBF0FBEEDBFADB7BEB71196F30184E237
:1039800001900D928150E1F7C901FA0109959394D4
:103990008DB79EB784960FB6F8949EBF0FBE8DBFAD
:1039A000D7011A968C91981638F233C0882D90E082
:1039B000880F991FD7011896ED91FC911997E80F80
:1039C000F91F20813181D901ED91FC914281538110
:1039D00089821B830A83B986A886EDB7FEB7B497A0
:1039E0000FB6F894FEBF0FBEEDBFADB7BEB71196D0
:1039F000F30184E201900D928150E1F7C901FA01CF
:103A000009958DB79EB784960FB6F8949EBF0FBEEA
:103A10008DBFD70114968D919C911597B60141E009
:103A20000E94CD180894C11CD11CD7011496ED91A9
:103A3000FC91159782819381C816D90608F42BCF83
:103A4000A4960FB6F894DEBF0FBECDBFCF91DF9125
:103A50001F910F91FF90EF90DF90CF90BF90AF90AC
:103A60009F908F907F906F9008950F931F93DF9397
:103A7000CF93CDB7DEB78C018989F8014481558198
:103A800087FF1EC08DB79EB784970FB6F8949EBF70
:103A90000FBE8DBFADB7BEB71196FE01379684E25B
:103AA00001900D928150E1F7CA010E94E519EDB72E
:103AB000FEB7B4960FB6F894FEBF0FBEEDBF22C09E
:103AC0008DB79EB785970FB6F8949EBF0FBE8DBF7A
:103AD0002DB73EB72F5F3F4FD901FE01379684E2E5
:103AE00001900D928150E1F781E0F90184A3CA01B0
:103AF0000E943C198DB79EB785960FB6F8949EBF6D
:103B00000FBE8DBFC8010E942D1CCF91DF911F9168
:103B10000F910895DF93CF93CDB7DEB7A4970FB67B
:103B2000F894DEBF0FBECDBFFC0123853485938999
:103B30009F5F938B915085858E8786858F8787853C
:103B4000888B8089898B81898A8B82898B8B86E09F
:103B50008D8781E08C8784E08B879A871986188609
:103B60003F832E833D832C838FEF9FEF9B838A833C
:103B70008FEF89838DB79EB784970FB6F8949EBF59
:103B80000FBE8DBF2DB73EB72F5F3F4FAE014F5FCA
:103B90005F4F84E2DA010D90AD01D9010D929D01D4
:103BA0008150C1F7CF010E94351D8DB79EB7849615
:103BB0000FB6F8949EBF0FBE8DBFA4960FB6F894B3
:103BC000DEBF0FBECDBFCF91DF910895DF93CF93BE
:103BD000CDB7DEB7A4970FB6F894DEBF0FBECDBF4A
:103BE000DC018FEF89838FEF9FEF9B838A831B9686
:103BF0008D919C911C979D838C839F838E83798765
:103C0000688753968C9153978A878F5F53968C93CE
:103C1000539783E08B8781E08C871D868DB79EB795
:103C200084970FB6F8949EBF0FBE8DBF2DB73EB7D9
:103C30002F5F3F4FAE014F5F5F4F84E2FA0101906B
:103C4000AF01F90101929F018150C1F7CD010E949E
:103C5000351D8DB79EB784960FB6F8949EBF0FBEE4
:103C60008DBFA4960FB6F894DEBF0FBECDBFCF9127
:103C7000DF9108952F923F924F925F926F927F92C1
:103C80008F929F92AF92BF92CF92DF92EF92FF926C
:103C90000F931F93DF93CF93CDB7DEB7A4970FB6E3
:103CA000F894DEBF0FBECDBF8C016F964FAC6F97FF
:103CB0002296EEACFFAC22978EAC9FAC23965FAC05
:103CC000239724966FAC24972596CFAC25972696FC
:103CD000DFAC26976E968FAD6E97882329F07724F8
:103CE0007A946FEF7FEF17C0F80180819181B7015F
:103CF0000E947728882309F46DC0F80180819181A2
:103D0000B7010E94C428782EF80180819181B70103
:103D10000E949C28BC01F801B384A484442011F4BF
:103D20009D2D07C08D2D90E046970CF053C09D2D22
:103D30009E5FE6E42E2E312C2C0E3D1EAE01425F1E
:103D40005F4FAD2DB0E01D9629E330E02C0F3D1FF5
:103D50002A0F3B1F1D9706C0F10181911F01FA0137
:103D60008193AF0122163306B9F7442029F0FE01F2
:103D7000EA0FFB1FB686A7869D87C394CC866B8609
:103D80005A86F986E8869F828E82BC82AD827B83CA
:103D90006A8379822DB73EB7245230400FB6F8942B
:103DA0003EBF0FBE2DBFADB7BEB71196FE01319617
:103DB00084E201900D928150E1F7C8010E94351D07
:103DC00081E0EDB7FEB7B4960FB6F894FEBF0FBE14
:103DD000EDBF01C080E0A4960FB6F894DEBF0FBE21
:103DE000CDBFCF91DF911F910F91FF90EF90DF90AA
:103DF000CF90BF90AF909F908F907F906F905F908B
:103E00004F903F902F900895CF92DF92EF92FF92C4
:103E10001F93DF93CF93CDB7DEB7A4970FB6F89477
:103E2000DEBF0FBECDBF7C01C8A8D9A82DB73EB755
:103E30002E5130400FB6F8943EBF0FBE2DBFADB728
:103E4000BEB71196FE01BE968EE101900D92815093
:103E5000E1F7CE010196B7010E94C71BF701138954
:103E60001F5F138B11508E819F8101972DB73EB735
:103E7000225E3F4F0FB6F8943EBF0FBE2DBF8E5F40
:103E80009F4F20F0838594859F838E838FEFC81684
:103E90008FEFD80641F08A819B81892B21F4C701DD
:103EA000B6010E94E61D1A87EDB7FEB7B4970FB6AC
:103EB000F894FEBF0FBEEDBFADB7BEB71196FE01C1
:103EC000319684E201900D928150E1F7C7010E9482
:103ED000351D2DB73EB72C5D3F4F0FB6F8943EBF52
:103EE0000FBE2DBF81E0A4960FB6F894DEBF0FBEC3
:103EF000CDBFCF91DF911F91FF90EF90DF90CF90DA
:103F00000895DF93CF93CDB7DEB76E970FB6F894D1
:103F1000DEBF0FBECDBF9C01FC01838594859A83D3
:103F200089837C836B831D8289E08E831F828DB79A
:103F30009EB74E970FB6F8949EBF0FBE8DBFADB71C
:103F4000BEB71196FE0131968EE101900D9281501F
:103F5000E1F7C9010E94041FEDB7FEB77E960FB6C8
:103F6000F894FEBF0FBEEDBF6E960FB6F894DEBF9D
:103F70000FBECDBFCF91DF910895FF920F931F9396
:103F8000CF93DF93EC018B01888199810E94D32725
:103F9000FF2416C08F2D90E0880F991FE885F985C2
:103FA000E80FF91FA081B181ED91FC91119701906B
:103FB000F081E02DCD01B8010995882339F0F39403
:103FC0008A85F81638F31C870B8781E0DF91CF9143
:103FD0001F910F91FF9008952F923F924F925F9201
:103FE0006F927F928F929F92AF92BF92CF92DF9209
:103FF000EF92FF920F931F93DF93CF93CDB7DEB76E
:10400000CA59D0400FB6F894DEBF0FBECDBF7C01B9
:10401000AA245DE3652E712C6C0E7D1E42E4242ED5
:10402000312C2C0E3D1E31E6C32ED12CCC0EDD1EC4
:104030009601235F3F4FC956DF4F39832883C75905
:10404000D040C3014396C756DF4F99838883C9592F
:10405000D04083C6D7011896ED91FC911997CB57A4
:10406000DF4F28813981C558D040E20FF31FA0816E
:10407000B181ED91FC9111970680F781E02DC3018C
:10408000BD01099522964EAD5FAD22973FEF4F3FA0
:10409000530709F447C6D1016D917C91F70123853F
:1040A00034856217730709F43DC628968FAD2897AB
:1040B00087FF43C08DADD6018C9312965C934E93CF
:1040C000119714963C932E931397F201808191815E
:1040D00016969C938E93159718967C936E931797CC
:1040E000D70153968C915397F60181878F5F539632
:1040F0008C9381E082878387848727968FAD27976B
:1041000085872DB73EB7245230400FB6F8943EBF96
:104110000FBE2DBFADB7BEB7119684E201900D92D0
:104120008150E1F7C7010E94351D8DB79EB7849677
:104130000FB6F8949EBF0FBE8DBFD1016D917C91DB
:104140006115710599F0F701868197810E94401AE7
:1041500027964FAD2797841709F4E4C5D1016D91D7
:104160007C91F701868197810E94641A22964EAD58
:104170005FAD2297D7018D919C91BA012A2D01E064
:104180000E94D427F1016081718122964EAD5FAD0E
:104190002297D7018D919C912A2D29960FAD2997B1
:1041A0000E94D42728962FAD2897213809F4BAC544
:1041B0002238C0F4253009F416C3263048F42330E1
:1041C00051F1243008F039C2213009F0E3C425C090
:1041D000283009F465C3203809F479C2263009F083
:1041E000D9C419C3263809F4ECC3273850F424384D
:1041F00009F498C5253808F038C2233809F0CAC434
:1042000053C12D3809F485C2203F09F40AC4283867
:1042100009F0C0C4EEC310E03CC0F7018481958171
:104220002B966FAD2B970E94AF187CC5EBE4F0E0A6
:10423000EC0FFD1FEA0FFB1F8081C857DF4F8883FB
:10424000C858D040C957DF4F1882C758D040EAE459
:10425000F0E0EC0FFD1FAE0FBF1F8C91C957DF4F71
:1042600068817981C758D040680F711D6217730744
:1042700079F022964EAD5FAD229729960FAD299722
:104280000F5F011BD7018D919C912A2D0E94D4278D
:104290001F5FA12FB0E0AA0FBB1F2A960FAD2A9770
:1042A000402F50E0F70123853485A417B5070CF49F
:1042B000BDCFD101ED91FC91E217F30709F432C5AE
:1042C000463151050CF02EC5D2016D917C916217DB
:1042D000730709F05CC08DADD6018C9322968EAD2C
:1042E0009FAD229712969C938E93119714967C9370
:1042F0006E93139716967C936E9315971896FC936E
:10430000EE931797F701838919968C9319978F5F0E
:10431000838B83E81A968C931A9781E01B968C9373
:104320001B970E5F1C960C93F3013D96C956DF4F09
:10433000A881B981C759D0409A01235F3F4FA3019B
:10434000420F531F2D50304002C081918D93E417CE
:10435000F507D9F7D7011B968C911B971C969C915A
:10436000F601E20FF31F85879687EDB7FEB7B49786
:104370000FB6F894FEBF0FBEEDBFADB7BEB7119636
:10438000F60184E201900D928150E1F7DDC3D7017F
:104390008D919C910E947728882309F46BC08DAD84
:1043A000F601808322968EAD9FAD22979283818302
:1043B000D7011B968D919C911C9794838383968340
:1043C0008583F10180819181D60118969C938E930B
:1043D0001797F701838919968C9319978F5F838BB1
:1043E00083E81A968C93D2016D917C9180819181A2
:1043F0000E94E92829969FAD2997980FF601938787
:104400002A968FAD2A978E5F84878250F3013D965E
:10441000C956DF4FA881B981C759D040282F30E055
:10442000235F3F4FA301420F531F2D50304002C066
:1044300081918D93E417F507D9F7D7011B968C91DD
:104440001B971C969C91F601E20FF31F85879687B8
:10445000EDB7FEB7B4970FB6F894FEBF0FBEEDBF31
:10446000ADB7BEB71196F60184E201900D9281506E
:10447000E1F76AC38DB79EB786970FB6F8949EBFD3
:104480000FBE8DBFEDB7FEB731969F01A30184E249
:10449000DA010D90AD01D9010D929D018150C1F756
:1044A00081E084A385A333C4D7011B964D915C9111
:1044B0001C97F2018081918184179507C1F12A969A
:1044C0008FAD2A97682F70E020E029C0EBE4F0E080
:1044D000EC0FFD1FEA0FFB1F3081C657DF4F3883FB
:1044E000CA58D040C757DF4F1882C958D0408AE415
:1044F00090E08C0F9D1FA80FB91F8C91C757DF4FFD
:10450000A881B981C958D040A80FB11D2F5FA41749
:10451000B50729F4B22EBFEF2B1751F403C4A22F15
:10452000B0E0AA0FBB1FA617B70784F2FBC3BB24DA
:10453000AB2DB0E0AA0FBB1F2A968FAD2A9790E053
:10454000A817B9070CF058C0EBE4F0E0EC0FFD1F22
:10455000EA0FFB1F2081C457DF4F2883CC58D0407F
:10456000C557DF4F1882CB58D0408AE490E08C0FBB
:104570009D1FA80FB91F8C91C557DF4F8880998068
:10458000CB58D040880E911C10E028C0EBE4F0E03E
:10459000EC0FFD1FEA0FFB1F9081C257DF4F98837E
:1045A000CE58D040C357DF4F1882CD58D040EAE4F0
:1045B000F0E0EC0FFD1FAE0FBF1F8C91C357DF4F14
:1045C00068817981CD58D040680F711DD7018D91D8
:1045D0009C91A4012A2D012F0E94D427812F8B0D9D
:1045E000A82FB0E0AA0FBB1F1F5F2A968FAD2A9796
:1045F00090E0A817B90754F2F20120813181D70168
:104600001B968D919C911C972817390709F48AC332
:10461000EDB7FEB7B6970FB6F894FEBF0FBEEDBF6D
:1046200031969F01A30184E2DA010D90AD01D90119
:104630000D929D018150C1F768C32DB73EB7265238
:1046400030400FB6F8943EBF0FBE2DBFEDB7FEB79A
:1046500031969F01A30184E2DA010D90AD01D901E9
:104660000D929D018150C1F792C2D7011B968D9189
:104670009C911C97892BA1F4F3013D9690811D9686
:104680008C911D97981761F431961196C756DF4F9C
:1046900028813981C959D040E217F30779F772C3ED
:1046A0008DB79EB786970FB6F8949EBF0FBE8DBF8D
:1046B000EDB7FEB731969F01A30184E2DA010D90B8
:1046C000AD01D9010D929D018150C1F760C2D201A7
:1046D0002D913C91F701838594852817390709F4BA
:1046E00021C32DB73EB7265230400FB6F8943EBFD7
:1046F0000FBE2DBFEDB7FEB731969F01A30184E237
:10470000DA010D90AD01D9010D929D018150C1F7E3
:10471000FCC2D2012D913C91F70183859485281725
:10472000390709F049C08DADD6018C9322968EAD24
:104730009FAD229712969C938E93119714963C935B
:104740002E93139716963C932E931597F101808123
:10475000918118969C938E931797D70153968C91BD
:104760005397F60181878F5F53968C938EE88287EB
:1047700081E08387848727968FAD279785872DB71C
:104780003EB7245230400FB6F8943EBF0FBE2DBF47
:10479000ADB7BEB7119684E201900D928150E1F75A
:1047A000C7010E94351D8DB79EB784960FB6F89449
:1047B0009EBF0FBE8DBFB6C2ADB7BEB796970FB640
:1047C000F894BEBF0FBEADBFEDB7FEB731969F01E7
:1047D000A30184E2DA010D90AD01D9010D929D0192
:1047E0008150C1F792C22DB73EB7265230400FB666
:1047F000F8943EBF0FBE2DBFEDB7FEB731969F01B7
:10480000A30184E2DA010D90AD01D9010D929D0161
:104810008150C1F7BCC10E943413D7015D966D93DE
:104820007D938D939C939097F3013D96D3011D96B4
:104830008D919C911E97D70156969C938E93559778
:10484000828157968C935797838158968C9358976B
:10485000848159968C93599785815A968C935A974F
:1048600086815B968C935B9787815C968C935C9733
:1048700081E054968C93EDB7FEB7B6970FB6F894D7
:10488000FEBF0FBEEDBF31969F01A30184E2DA01A6
:104890000D90AD01D9010D929D018150C1F777C1F5
:1048A0002C96FFAD2C97C057DF4FF883C059D040EE
:1048B000C157DF4F1882CF58D0402B968FAD2B9722
:1048C000C157DF4F28813981CF58D040280F311D83
:1048D000D70192963C932E9391972D968FAD2D975D
:1048E00093968C9393972E968FAD2E9794968C9348
:1048F0006096BFAD6097CE56DF4FB883C259D040A7
:10490000CF56DF4F1882C159D0402F968FAD2F97C9
:10491000CF56DF4FE881F981C159D040E80FF11D32
:10492000D7019696FC93EE93959761968FAD61971C
:1049300097968C93979762968FAD629798968C9383
:10494000FE01ED5AFF4FB081CC56DF4FB883C459FA
:10495000D040CD56DF4F1882C359D040FE01EE5AE9
:10496000FF4F8081CD56DF4FE881F981C359D04098
:10497000E80FF11DD7019A96FC93EE939997FE01EB
:10498000EC5AFF4F80819B968C939B97FE01EB5ACC
:10499000FF4F80819C968C93EDB7FEB7B6970FB60C
:1049A000F894FEBF0FBEEDBF31969F01A30184E2D4
:1049B000DA010D90AD01D9010D929D018150C1F731
:1049C000E6C02DB73EB7265230400FB6F8943EBF32
:1049D0000FBE2DBFEDB7FEB731969F01A30184E254
:1049E000DA010D90AD01D9010D929D018150C1F701
:1049F0008CC12DB73EB7265230400FB6F8943EBF5B
:104A00000FBE2DBFEDB7FEB731969F01A30184E223
:104A1000DA010D90AD01D9010D929D018150C1F7D0
:104A200074C1D70112960D911C911397D601F30111
:104A300084E201900D928150E1F7F6016485528580
:104A4000418527813085858196819A8389833C833E
:104A50002B834D835E836F83C956DF4FE881F981D5
:104A6000C759D040DE01189670E0635F7F4F6C0D30
:104A70007D1D02C081918D93E617F707D9F72DB7F9
:104A80003EB72E5130400FB6F8943EBF0FBE2DBF3B
:104A9000ADB7BEB71196FE0131968EE101900D9231
:104AA0008150E1F7C8010E948117D2012D913C91FC
:104AB000EDB7FEB77E960FB6F894FEBF0FBEEDBF02
:104AC000D7011B968D919C911C972817390709F0E7
:104AD00048C08DADF601808322968EAD9FAD2297A2
:104AE000928381833483238336832583D1018D91FF
:104AF0009C9190878783F7018389D60119968C93BF
:104B000019978F5F838B80E81A968C931A9781E0B0
:104B10001B968C931B971C968C931C9727968FAD96
:104B200027971D968C93EDB7FEB7B4970FB6F89400
:104B3000FEBF0FBEEDBFADB7BEB71196F60184E262
:104B400001900D928150E1F7C7010E94351D2DB7EC
:104B50003EB72C5D3F4F0FB6F8943EBF0FBE2DBF42
:104B6000E1C08DB79EB786970FB6F8949EBF0FBE73
:104B70008DBFEDB7FEB731969F01A30184E2DA0144
:104B80000D90AD01D9010D929D018150C1F781E0D9
:104B900084A3BCC0D2014D915C91F70183859485BB
:104BA0004817590709F09AC026FF48C08DADD601B5
:104BB0008C9322968EAD9FAD229712969C938E93E6
:104BC000119714965C934E93139716965C934E939D
:104BD0001597F1018081918118969C938E93179778
:104BE000D70153968C915397F60181878F5F539627
:104BF0008C9380E8828781E08387848727968FADB6
:104C0000279785872DB73EB7245230400FB6F894CA
:104C10003EBF0FBE2DBFADB7BEB7119684E2019067
:104C20000D928150E1F7C7010E94351D8DB79EB7E7
:104C300084960FB6F8949EBF0FBE8DBFD601F301C8
:104C400084E201900D928150E1F7D6011C966C919F
:104C50001C971A965C911A9719964C91199717966A
:104C60002D913C91189715968D919C91169798A32C
:104C70008F8F3AA329A34BA35CA36DA3C956DF4F23
:104C8000E881F981C759D040DE01969670E0635FF4
:104C90007F4F6C0D7D1D02C081918D93E617F70744
:104CA000D9F7EDB7FEB77E970FB6F894FEBF0FBEEB
:104CB000EDBFD70112968D919C911397ADB7BEB7FA
:104CC0001196FE017F962EE101900D922150E1F7A1
:104CD0000E948117EDB7FEB77E961FC02DB73EB775
:104CE000265230400FB6F8943EBF0FBE2DBFEDB731
:104CF000FEB731969F01A30184E2DA010D90AD0168
:104D0000D9010D929D018150C1F714A215A2C701CE
:104D10000E943A1EEDB7FEB7B6960FB6F894FEBFE6
:104D20000FBEEDBFD7011896ED91FC911997CB57A7
:104D3000DF4F28813981C558D040E20FF31FA08191
:104D4000B181ED91FC9111970480F581E02DCD01A9
:104D50000995882309F07EC9A394D7011A968C91EE
:104D6000A81660F5EA2DF0E0EE0FFF1FCB57DF4FDE
:104D7000F983E883C558D040A4E44A2E512C4C0E48
:104D80005D1ED0CF6296FFAD6297CA56DF4FF883A3
:104D9000C659D040CB56DF4F1882C559D0406196D6
:104DA0008FAD6197CB56DF4F68817981C559D0406F
:104DB000680F711DC7010E94BD1FB4CFC656DF4FDB
:104DC0000FB6F894DEBF0FBECDBFCF91DF911F911C
:104DD0000F91FF90EF90DF90CF90BF90AF909F909A
:104DE0008F907F906F905F904F903F902F9008959D
:104DF0000F931F938C010E94EC1FF8018281938115
:104E00000E94781791E089271F910F910895EF92E2
:104E1000FF920F931F93DF93CF93CDB7DEB76E97BB
:104E20000FB6F894DEBF0FBECDBFF82EE92E8B0172
:104E3000CB010E94F826882399F0F80162817381E2
:104E40008E010F5F1F4FC8010E94BF172F2D3E2DEF
:104E5000C901DC01F8018EE101900D928150E1F76A
:104E60008F2D9E2D6E960FB6F894DEBF0FBECDBF70
:104E7000CF91DF911F910F91FF90EF900895EF92E6
:104E8000FF920F931F93CF93DF93EC010E94BD1FFE
:104E90008823F9F423C0CE010E948A1D0E94341396
:104EA0007B018C0188E99AE3A0E0B0E0E80EF91EEE
:104EB0000A1F1B1F8B859C85892B59F40E94341374
:104EC0006E157F058007910720F4CE010E94EC1F2C
:104ED000F1CF8B859C85892BF1F281E0DF91CF9119
:104EE0001F910F91FF90EF9008956F927F928F9294
:104EF0009F92AF92BF92CF92DF92EF92FF920F9369
:104F00001F936C01CB014A013901F601138A128605
:104F1000880F991F0E94F512F6019187808788E01B
:104F200090E00E94F812B82EA92EB4010E940E291A
:104F3000F601B082A18288E090E00E94F812B82EBB
:104F4000A92EB3010E941E18F601B282A38284E04A
:104F500090E00E94F812B82EA92EB8010E940F1AF4
:104F6000F601B482A58284E090E00E94F812182F26
:104F7000092FB7010E949C1AF6011683078312A21B
:104F800011A216A215A212A611A6148A1F910F91A2
:104F9000FF90EF90DF90CF90BF90AF909F908F9059
:104FA0007F906F9008950895CF92DF92EF92FF92D5
:104FB0000F931F93CF93DF93DC017A01C22ED02E83
:104FC0008D919C9111976817790709F487C08FEF2D
:104FD0006F3F780709F482C06115710509F47EC03E
:104FE00014960D911C91159720E030E040E050E0C0
:104FF0001CC0FE01E40FF51FEA0126968081918115
:105000008617970779F485818D1508F467C0F382B8
:10501000E282C4821696ED91FC911797E40FF51F7A
:10502000D5825CC02F5F3F4FAE011696CD91DC91CB
:10503000179720173107E8F212968D919C911397DC
:10504000FC01EE0FFF1FE80FF91FEE0FFF1FEC0F23
:10505000FD1F7183608312968D919C911397FC01C3
:10506000EE0FFF1FE80FF91FEE0FFF1FEC0FFD1FE4
:10507000F382E28212962D913C911397C901880F19
:10508000991F820F931F880F991FC80FD91FCC82B9
:1050900012962D913C911397C901880F991F820F89
:1050A000931F880F991F1696ED91FC911797E80FA3
:1050B000F91FD58212968D919C91139701961396A4
:1050C0009C938E93129714962D913C91159782176D
:1050D000930720F013961C921E921297DF91CF91A6
:1050E0001F910F91FF90EF90DF90CF900895CF9395
:1050F000DF93DC01EB0114966D917C91159740E0F4
:1051000050E020E030E011C01696ED91FC91179729
:10511000E20FF31F808191812A5F3F4F8C179D071B
:1051200011F481E006C04F5F5F4F4617570760F3E9
:1051300080E0DF91CF910895CF93DF93DC01EB0105
:1051400014966D917C91159740E050E020E030E09E
:1051500012C01696ED91FC911797E20FF31F2A5F8C
:105160003F4F808191818C179D0719F422813381F3
:1051700007C04F5F5F4F4617570758F320E030E0F6
:10518000C901DF91CF910895CF93DF93DC01EB014B
:1051900014966D917C91159740E050E020E030E04E
:1051A00011C01696ED91FC911797E20FF31F2A5F3D
:1051B0003F4F808191818C179D0711F4848106C037
:1051C0004F5F5F4F4617570760F38FEFDF91CF9127
:1051D0000895CF93DF93DC01EB0114966D917C91E0
:1051E000159740E050E020E030E011C01696ED91B8
:1051F000FC911797E20FF31F2A5F3F4F8081918147
:105200008C179D0711F4858106C04F5F5F4F4617CD
:10521000570760F380E0DF91CF9108950F931F93BC
:10522000CF93DF938C01DC0114966C931497159641
:105230007C93EB01CB01880F991F860F971F880F76
:10524000991F0E94F512F8019783868320E030E0D1
:1052500080E090E00CC0D8011696ED91FC91179774
:10526000E80FF91F118210822F5F3F4F06962C170F
:105270003D0788F3F80113821282DF91CF911F91CD
:105280000F910895FC01758364830895DC01ED910D
:10529000FC911197672B21F40680F781E02D03C064
:1052A0000280F381E02DCD010995089544B1FC0100
:1052B000248130E02850304081E090E002C0880F27
:1052C000991F2A95E2F7482B44B9089502970E9446
:1052D0006A29089554B140E0FC01248130E028504F
:1052E000304081E090E002C0880F991F2A95E2F7D4
:1052F000892B09F441E0452344B9089502970E949F
:105300008229089543B1FC01248130E028503040C7
:1053100030E081E090E0022E02C0880F991F0A94CD
:10532000E2F750E08423952302C0959587952A954E
:10533000E2F7892B09F031E0832F0895FC012481E5
:10534000662369F045B130E02850304081E090E0BC
:1053500002C0880F991F2A95E2F7482B10C055B15B
:1053600040E030E02850304081E090E002C0880FFB
:10537000991F2A95E2F7892B09F441E0452345B9A5
:1053800008954F925F926F927F928F929F92AF9209
:10539000BF92CF92DF92EF92FF920F931F93DF9312
:1053A000CF93CDB7DEB7FC01DB018D896B897C899A
:1053B000893008F444C014969C910F89FE88E98CCA
:1053C000D88CCB8CBA8C8C8C9D8CAE8C2FE1422EE1
:1053D000512C4C0E5D1EAF01435F5F4F182F1950CB
:1053E000212F30E0245F3F4F83E1682E712C6C0E3B
:1053F0007D1E260D371D06C0D2018D912D01DA01CB
:105400008D93AD0142165306B9F790837283618381
:10541000902F80E08F0D911D948383839E2D80E0DB
:105420008D0D911D968385839C2D80E08B0D911DA4
:105430009087878381869286A386148704C08FEF26
:105440009FEF94838383CF01CF91DF911F910F91C1
:10545000FF90EF90DF90CF90BF90AF909F908F9094
:105460007F906F905F904F900895EF92FF921F93FF
:10547000DF93CF93CDB7DEB7DC01E984FA841C89D2
:105480008B859C852D853E854F85588969897A89CC
:10549000EB8913968C93139714969C9314971596F7
:1054A0002C93159716963C93169717964C9317972F
:1054B00018965C93189719966C9319971A967C9383
:1054C0001A971B96EC931B97BE016B5E7F4FAD0145
:1054D000445F5F4F212F30E0235F3F4F88E090E033
:1054E0008C0F9D1F280F391F06C0FB018191BF0142
:1054F000FA018193AF0162177307B9F7175F12962C
:105500001C9312971196FC92EE92CD01CF91DF91F0
:105510001F91FF90EF90089506960E94AA1491E0C3
:1055200089270895CF92DF92EF92FF920F931F93F6
:10553000DF93CF93CDB7DEB7A3970FB6F894DEBF56
:105540000FBECDBF6C017B018B010A5F1F4FC801ED
:105550000E94AA148823F9F4C8010E94A214882387
:1055600021F4F7018281938102C08FEF9FEF9A832C
:105570008983C80160E60E947714282F8B83C801B5
:1055800061E6AE014C5F5F4F0E943614C80162EEC7
:1055900040E00E94AF148DB79EB783970FB6F89482
:1055A0009EBF0FBE8DBFADB7BEB71196FE0131963F
:1055B00083E201900D928150E1F7C601B7010E948C
:1055C000C129EDB7FEB7B3960FB6F894FEBF0FBE74
:1055D000EDBFC601A3960FB6F894DEBF0FBECDBFD8
:1055E000CF91DF911F910F91FF90EF90DF90CF90BF
:1055F00008950F931F93DF93CF93CDB7DEB7A8978E
:105600000FB6F894DEBF0FBECDBF8C018DB79EB72D
:1056100084970FB6F8949EBF0FBE8DBFADB7BEB7CF
:105620001196FE01BF9684E201900D928150E1F740
:10563000CE010696B8010E94352A1D821C8285E59E
:105640008B839E818F818A8399830A5F1F4F8DB7D9
:105650009EB784960FB6F8949EBF0FBE8DBFC8014B
:10566000BE016F5F7F4F0E942414C8010E94701515
:10567000C80160EBAE01475F5F4F28850E94E113D0
:1056800061E070E080E090E00E944213C8010E9457
:10569000A615A8960FB6F894DEBF0FBECDBFCF916A
:1056A000DF911F910F910895EF92FF920F931F9337
:1056B000DF93CF9300D000D00F92CDB7DEB78C012F
:1056C000F62EE72E1D821C8285E58B837A83698303
:1056D000C8010696BE016F5F7F4F442319F00E94F8
:1056E0002A1405C00E943014F801F282E3820F9060
:1056F0000F900F900F900F90CF91DF911F910F910E
:10570000FF90EF900895EF92FF920F931F93CF9326
:10571000DF938C017B01EC012696CE010E94BA1624
:10572000C801B70140E00E94542BC8016FEF7FEF22
:1057300041E00E94542BCE0162E00E943F15CE0151
:105740006AE00E946A15CE0160E040E00E941215F6
:10575000CE0161E040E00E941215CE010E94DB15EF
:10576000882351F062E370E080E090E00E944213F1
:10577000CE010E94A61581E0DF91CF911F910F917C
:10578000FF90EF9008952F923F924F925F926F9209
:105790007F928F929F92AF92BF92CF92DF92EF92C1
:1057A000FF920F931F93CF93DF932C01162FF42EAC
:1057B000D22E86E791E0D2018D939C9385E090E014
:1057C0000E94F8123C0132E8232E31E0332EFC0116
:1057D00031822082E1012E96D383C283148385E037
:1057E00090E00E94F8124C01DC0111963C922E923E
:1057F0001396DC93CE9312971496FC9285E090E07A
:105800000E94F8125C01FC0131822082D383C283A2
:10581000D48285E090E00E94F8126C01DC011196C0
:105820003C922E921396DC93CE93129714960C937F
:1058300085E090E00E94F812FC0131822082D3833F
:10584000C283E482D20117967C926E9216971996C3
:105850009C928E92189782E090E0A80EB91E1B963B
:10586000BC92AE921A971D96DC92CE921C971F9610
:10587000FC93EE931E978AE691E08D939C93DF91C3
:10588000CF911F910F91FF90EF90DF90CF90BF903D
:10589000AF909F908F907F906F905F904F903F90D0
:1058A0002F9008959C01F999FECF32BD21BDF89A41
:1058B00080B5089520E030E0AFEFBFEF1DC0FB01E1
:1058C000E20FF31F8081A8278A2F82958A27082E4E
:1058D000869586958025082E8695802587700A2EC8
:1058E000AB2F869507948795B02DA82706948795AA
:1058F000B025A8272F5F3F4F2417350700F3CD01B0
:10590000089528E088E190E00FB6F894A895809378
:1059100060000FBE20936000FFCFCF92DF92EF9226
:10592000FF920F931F93CF93DF93EC018DE290E0F2
:105930000E94F812D82EC92E61E070E04AE050E0D3
:1059400025E030E005E010E0EAE0EE2EF12C0E94C8
:105950007527D882C98280E190E00E94F812F82E63
:10596000D92E6DE04BE02CE00AE038E0E32E0E94F7
:10597000C32BFE01819191918F016F2D7D2D0E948E
:10598000A21BC80160EF73E04CE050E022E53CE26E
:105990000E94B601F8012FEF3FEFAE01425F5F4F6B
:1059A00081912827822F82958227082E86958695B9
:1059B0008025082E869580258770022E232F8695B8
:1059C00007948795302D282706948795302528271A
:1059D000E417F50729F7232B61F028E088E190E030
:1059E0000FB6F894A895809360000FBE20936000D6
:1059F000FFCF8E01025F1F4FC80162EE73E04EE0E1
:105A000050E022E53CE20E94B601F8012FEF3FEFA3
:105A1000AE01445E5F4F81912827822F82958227B5
:105A2000082E869586958025082E86958025877078
:105A3000022E232F869507948795302D28270694CC
:105A4000879530252827E417F50729F7232B61F0E0
:105A500028E088E190E00FB6F894A8958093600064
:105A60000FBE20936000FFCF6E857F85888199816E
:105A70000E943F27882361F428E088E190E00FB678
:105A8000F894A895809360000FBE20936000FFCF2C
:105A900068897989888199810E94811FDF91CF91DE
:105AA0001F910F91FF90EF90DF90CF90089597FB9B
:105AB000092E07260AD077FD04D049D006D0002051
:105AC0001AF4709561957F4F0895F6F7909581953A
:105AD0009F4F0895A1E21A2EAA1BBB1BFD010DC00A
