:100000000C9434000C9451000C9451000C94510049
:100010000C9451000C9451000C9451000C9451001C
:100020000C9451000C9451000C9451000C9451000C
:100030000C9451000C9451000C9431140C94510008
:100040000C9451000C9451000C9451000C945100EC
:100050000C9451000C9451000C9451000C945100DC
:100060000C9451000C94510011241FBECFEFD8E026
:10007000DEBFCDBF11E0A0E0B1E0EEE7F9E602C0DF
:1000800005900D92A439B107D9F711E0A4E9B1E0C8
:1000900001C01D92AC39B107E1F70E94FC130C942A
:1000A000BD340C940000CF93DF93BC0182309105E6
:1000B00010F462E070E0A0919A01B0919B01ED0113
:1000C000E0E0F0E040E050E021C0888199818617AF
:1000D000970769F48A819B81309719F09383828313
:1000E00004C090939B0180939A01FE0134C068176D
:1000F000790738F44115510519F08417950708F46C
:10010000AC01FE018A819B819C01E9012097E9F6FF
:1001100041155105A9F1CA01861B970B049708F4F4
:10012000BA01E0E0F0E02AC08D919C91119784170C
:100130009507F9F46417750781F412968D919C91D7
:100140001397309719F09383828304C090939B0197
:1001500080939A01FD0132964CC0CA01861B970B11
:10016000FD01E80FF91F6193719302978D939C93A2
:1001700040C0FD01828193819C01D9011097A1F6B5
:100180008091980190919901892B41F4809102010D
:1001900090910301909399018093980140910401FB
:1001A000509105014115510541F44DB75EB780915D
:1001B000000190910101481B590B20919801309149
:1001C0009901CA01821B930B8617970780F0AB0138
:1001D0004E5F5F4F8417950750F0420F531F5093A7
:1001E000990140939801F9016193719302C0E0E095
:1001F000F0E0CF01DF91CF910895CF93DF93009787
:1002000009F450C0EC0122971B821A82A0919A0136
:10021000B0919B01109709F140E050E0AC17BD0789
:1002200008F1BB83AA83FE0121913191E20FF31FF4
:10023000AE17BF0779F48D919C911197280F391F44
:100240002E5F3F4F3983288312968D919C9113978F
:100250009B838A834115510571F4D0939B01C09310
:100260009A0120C012968D919C911397AD01009731
:1002700011F0DC01D3CFFA01D383C28321913191F4
:10028000E20FF31FCE17DF0769F488819981280FE9
:10029000391F2E5F3F4FFA01318320838A819B8172
:1002A00093838283DF91CF910895A0E0B0E0EBE5E6
:1002B000F1E00C948E34EC01A880B980CA80DB8018
:1002C000A114B104C104D10441F484E2A82E89ED43
:1002D000B82E8BE5C82E87E0D82EC601B5012DE1DA
:1002E00033EF41E050E00E94383427EA31E440E047
:1002F00050E00E9467347B018C01C601B5012DE1FD
:1003000033EF41E050E00E943834CA01B9012CEECD
:1003100034EF4FEF5FEF0E9467346E0D7F1D801F3B
:10032000911F97FF04C061507040804090486883DF
:1003300079838A839B839B01AC015F77B901CA01F2
:10034000CDB7DEB7EAE00C94AA340E9455010895B7
:1003500086E091E00E945501089560930601709334
:10036000070180930801909309010895A0E0B0E08F
:10037000ECEBF1E00C9490347C01EB018A01690113
:1003800009C0CE012196F6010995F70181937F01FD
:100390000150104001151105A1F7CDB7DEB7E8E017
:1003A0000C94AC34A0E0B0E0E8EDF1E00C949034B3
:1003B000EC017B018A01690109C0CE012196F70198
:1003C00061917F01F6010995015010400115110559
:1003D000A1F7CDB7DEB7E8E00C94AC349C01F999F5
:1003E000FECF32BD21BDF89A80B508959C01F999E0
:1003F000FECF1FBA32BD21BD60BD0FB6F894FA9A88
:10040000F99A0FBE0895FC010190F081E02D258935
:10041000368985A196A18217930768F028173907B6
:10042000F9F4978987A1891730F09817C9F4908D4E
:1004300080A59817A8F081A592A52817390770F014
:100440002817390769F4978983A5981738F0981702
:1004500039F420E0908D84A5891718F021E001C0BF
:1004600020E0822F0895DC016031F8F4462F50E03F
:1004700060E070E0FA0183E0F595E7958A95E1F791
:10048000EA0FFB1F25A530E04370507081E090E03B
:1004900002C0880F991F4A95E2F7282339231216C4
:1004A0001306F4F461E070E01BC0603238F4A60F6C
:1004B000B11DDF968C91682F70E012C0603318F088
:1004C00060E070E00DC0E62FF0E0B996EE0FFF1F80
:1004D000E80FF91F96A580E025A5BC01620F711DEC
:1004E000CB010895EF92FF920F931F93CF93DF9369
:1004F0008C01F62EEA01E22E0E9433028C179D0732
:1005000009F449C08FE08F1578F12F2D30E0CD2B05
:10051000B1F4F90153E0F595E7955A95E1F7E00F4D
:10052000F11F2370307081E090E002C0880F991FA6
:100530002A95E2F7809525A5822385A729C0F90190
:1005400043E0F595E7954A95E1F7E00FF11F237039
:10055000307081E090E002C0880F991F2A95E2F781
:1005600025A5282B25A714C08FE18F1528F0F801A9
:10057000EF0DF11DC7AF0CC08FE28F1548F0EF2DC6
:10058000F0E0B996EE0FFF1FE00FF11FD6A7C5A749
:10059000EE20D1F003C081E08E15B0F42F2D30E0B5
:1005A000F90193E0F595E7959A95E1F7E00FF11FD2
:1005B0002370307081E090E002C0880F991F2A9567
:1005C000E2F727A1282B27A3DF91CF911F910F914D
:1005D000FF90EF900895AF92BF92CF92DF92EF928B
:1005E000FF920F931F93DF93CF93CDB7DEB727977B
:1005F0000FB6F894DEBF0FBECDBF8C0170E0CB010B
:10060000F3E0880F991FFA95E1F7861B970B0059C5
:100610001D4FD801ED91FC9100571240DE0111965B
:10062000E80FF91F87E001900D928150E1F72981D1
:100630003D8102591D4F8E819F81880F991FF801BE
:10064000608171810E561240680F791F2223E1F0FC
:100650002130D1F47B01CC24DD24A32EBB2411C096
:10066000D70111964C911197C8016C9150E021E08F
:100670000E9472020894C11CD11CE2E0F0E0EE0E70
:10068000FF1ECA14DB0460F327960FB6F894DEBF92
:100690000FBECDBFCF91DF911F910F91FF90EF90D3
:1006A000DF90CF90BF90AF9008956F927F928F921E
:1006B0009F92AF92BF92CF92DF92EF92FF920F93F1
:1006C0001F93DF93CF9300D000D00F92CDB7DEB74A
:1006D0008C0170E0CB01880F991F880F991F860F3E
:1006E000971F04591D4FD801ED91FC910C561240F3
:1006F000DE011196E80FF91F85E001900D928150FF
:10070000E1F78B8002591D4F8C819D81880F991FC5
:10071000F801C080D1800E561240C80ED91EF601D5
:1007200080E017C0DF01F080FF2031F4C801618153
:100730000E943302982E10C0329641E0F41641F424
:10074000C80111966C910E943302982E9F2404C018
:100750008F5F881538F39924D60140E061E070E09E
:1007600029C08C91823021F511968C91119790E0DF
:10077000FC0123E0F595E7952A95E1F7E00FF11FDD
:1007800027A130E083709070FB0102C0EE0FFF1FC5
:100790008A95E2F72E233F23121613064CF4BB244E
:1007A000B394B9247601AA24B1E06B2E712C2EC02B
:1007B0004F5F12964815A8F2B92CF4CFD7018C914F
:1007C0008330F9F411966C91862F90E0FC01A3E040
:1007D000F595E795AA95E1F7E00FF11F27A130E025
:1007E00083709070F30102C0EE0FFF1F8A95E2F74D
:1007F0002E233F231216130624F4C8010E9433024D
:10080000B82EA39442E050E0E40EF51EA814B0F216
:10081000B914E1F0FF2418C0D6014C91442329F407
:10082000C80111966C914B2D06C0413041F44B2507
:10083000C801F601618150E021E00E947202F39448
:1008400042E050E0C40ED51EF81430F30F900F9024
:100850000F900F900F90CF91DF911F910F91FF900C
:10086000EF90DF90CF90BF90AF909F908F907F9050
:100870006F9008956F927F928F929F92AF92BF92E6
:10088000CF92DF92EF92FF920F931F93DF93CF935C
:1008900000D000D00F92CDB7DEB77C0170E0CB0165
:1008A000880F991F880F991F860F971F2CE632E03B
:1008B000E20EF31ED701ED91FC9124E93DEFE20E2B
:1008C000F31EDE011196E80FF91F85E001900D92ED
:1008D0008150E1F77B804EE652E0E40EF51E8C81FC
:1008E0009D81880F991FD701AD90BC90E2E9FDEF83
:1008F000EE0EFF1EA80EB91EF50190E009C0DF0143
:1009000080813296882319F411966C9104C09F5F00
:100910009715A8F36FEFC7010E943302582FD50136
:1009200040E061E070E02EC08C91863049F5119670
:100930008C91119790E0FC0113E0F595E7951A95DD
:10094000E1F7EE0DFF1D27A130E083709070FB01F1
:1009500002C0EE0FFF1F8A95E2F72E233F231216E7
:10096000130674F4C52EC3948C2D8370833011F458
:10097000FCEFCF228501DD24E1E08E2E912C2CC0EE
:100980004F5F1296471580F2C52EF4CFD8018C9197
:100990008730F9F411966C91862F90E0FC0173E09A
:1009A000F595E7957A95E1F7EE0DFF1D27A130E06B
:1009B00083709070F40102C0EE0FFF1F8A95E2F77A
:1009C0002E233F231216130624F4C7010E9433027C
:1009D000C82ED3940E5F1F4FD714C0F28501DD24BB
:1009E0000EC0D8018C91883039F4C70111966C91F2
:1009F0000E943302019731F0D3940E5F1F4FD7143A
:100A000080F3CBC060E8662E6C28F50190E009C049
:100A1000DF0180813296813019F411960C9104C067
:100A20009F5F9715A8F30FEFF50190E009C0DF0174
:100A300080813296853019F411966C9104C09F5FC5
:100A40009715A8F36FEFC7010E943302282FF50115
:100A500090E009C0DF0180813296843019F411964C
:100A60008C9104C09F5F9715A8F38FEF122F145637
:100A7000180FF50190E009C0DF01808132968930BE
:100A800019F411966C9104C09F5F9715A8F36FEF4E
:100A9000C7010E943302982E882349F4212F30E0A9
:100AA000802F90E00597281739077CF40CC0B1E03F
:100AB0008B1759F49924212F30E0802F90E0059670
:100AC0008217930714F09924939485018824C62CE7
:100AD000DD24E3E0CE22DD2434C0D8018C918930BE
:100AE00031F4C70111966C91492D50E024C08A3031
:100AF00031F440E050E0C114D104D1F417C08B3080
:100B000069F440E050E0F1E0CF16D10411F441E087
:100B100050E0C701D80111966C910DC08C3071F472
:100B200040E050E0B2E0CB16D10411F441E050E0D7
:100B3000C701F801618121E00E94720283940E5F77
:100B40001F4F871450F290E00BC0F501808122E026
:100B500030E0A20EB31E882311F4618104C09F5FB0
:100B6000971598F36FEFC701462D50E021E00E94E2
:100B700072020F900F900F900F900F90CF91DF9116
:100B80001F910F91FF90EF90DF90CF90BF90AF90AB
:100B90009F908F907F906F9008955FE7652E6C20F7
:100BA00034CF9F92AF92BF92CF92DF92EF92FF929B
:100BB0000F931F93CF93DF937C0100E050E6A52EA7
:100BC000B12CA80EB91E48E6C42E42E0D42EC80EA1
:100BD000D91E33E0932E18C0099DC0011124F601DF
:100BE000C081D181C80FD91F1881112361F017FD71
:100BF0000AC0C7016A810E943302682F16FF03C032
:100C000089810E94FB140F5FF5018081081720F392
:100C1000DF91CF911F910F91FF90EF90DF90CF90D8
:100C2000BF90AF909F9008952F923F924F925F9206
:100C30006F927F928F929F92AF92BF92CF92DF92EC
:100C4000EF92FF920F931F93DF93CF93CDB7DEB751
:100C50006E970FB6F894DEBF0FBECDBF8C01DD24BA
:100C600091E6892E912C800E911E8AE6A82E82E0B4
:100C7000B82EA00EB11EB5E02B2EA1E04A2E512CAD
:100C8000F0EF3F2EE4E0CE2E3E010894611C711C73
:100C900065C0D29CC0011124F501A081B181A80FCB
:100CA000B91F8C91882309F458C087FD56C0813044
:100CB00009F053C013966C911397862F90E0FC01B6
:100CC00073E0F595E7957A95E1F7E00FF11F27A11D
:100CD00030E083709070A20102C0440F551F8A95C6
:100CE000E2F72423352312161306BCF5F801E08041
:100CF000F180F701838594859A83898311968D917C
:100D00009C9112979C838B831D823E82CF82688741
:100D100014968C918987C8010E9433028A879B8729
:100D20004DB75EB74E5150400FB6F8945EBF0FBE40
:100D30004DBFADB7BEB71196F3018EE101900D9294
:100D40008150E1F7C7010E940A208DB79EB74E96E9
:100D50000FB6F8949EBF0FBE8DBFD394F40180816F
:100D6000D81608F496CF6E960FB6F894DEBF0FBE75
:100D7000CDBFCF91DF911F910F91FF90EF90DF904A
:100D8000CF90BF90AF909F908F907F906F905F902B
:100D90004F903F902F900895DF93CF93CDB7DEB75C
:100DA0006E970FB6F894DEBF0FBECDBFFC01E15ABF
:100DB000FF4F1082EF55F04020813181D9011B9601
:100DC0008D919C911C979A838983808991899C83BA
:100DD0008B831D828AE88E8382E08F8380E88887F8
:100DE00019868DB79EB74E970FB6F8949EBF0FBE6B
:100DF0008DBFADB7BEB71196FE0131968EE1019061
:100E00000D928150E1F7C9010E940A20ADB7BEB72B
:100E10005E960FB6F894BEBF0FBEADBF6E960FB60E
:100E2000F894DEBF0FBECDBFCF91DF9108955F92E2
:100E30006F927F928F929F92AF92BF92CF92DF92EA
:100E4000EF92FF920F931F93DF93CF9300D000D0C8
:100E50000F92CDB7DEB77C0170E0CB01880F991FF0
:100E6000880F991F860F971F2CE632E0E20EF31EC3
:100E7000D701ED91FC9124E93DEFE20EF31EDE0176
:100E80001196E80FF91F85E001900D928150E1F76E
:100E90006B808EE692E0E80EF91E8C819D81880FB2
:100EA000991FD701AD90BC90E2E9FDEFEE0EFF1E59
:100EB000A80EB91EF50190E009C0DF0180813296CD
:100EC0008B3019F411966C9104C09F5F9615A8F3AE
:100ED0006FEFC7010E943302182FF50190E009C09F
:100EE000DF01808132968A3019F411966C9104C02A
:100EF0009F5F9615A8F36FEFC7010E943302880F1A
:100F0000991F180FF50190E009C0DF01808132962A
:100F1000882319F411965C9005C09F5F9615A8F37D
:100F200055245A94812E992411FF1FC0C701652DA5
:100F30000E943302482F50E0D701ED91FC91838D40
:100F400090E09A012F7330708217930771F4842F09
:100F5000807C21F40DEFC02EC12208C041545040C6
:100F6000C701652D20E00E947202C12EF50190E0BC
:100F700009C0DF0180813296893019F411966C9195
:100F800004C09F5F9615A8F36FEFC7010E9433025C
:100F9000782ED50140E061E070E023C08C9188306C
:100FA000F1F411968C91119790E0FC0113E0F59506
:100FB000E7951A95E1F7EE0DFF1D27A130E083704C
:100FC0009070FB0102C0EE0FFF1F8A95E2F72E23FF
:100FD0003F23121613061CF481E0782604C04F5FED
:100FE00012964615D8F2C70169E0472D50E021E07E
:100FF0000E9472028501DD2410C0D8018C918730D7
:1010000049F4C70111966C910E943302019711F4C3
:1010100081E006C0D3940E5F1F4FD61470F380E0BA
:10102000B1E07B1609F0C6C0882309F0C3C0D50122
:1010300040E001E010E0BBC08C918530E9F51196ED
:101040006C911197862F90E0FC0173E0F595E79580
:101050007A95E1F7EE0DFF1D27A130E083709070C7
:10106000F80102C0EE0FFF1F8A95E2F72E233F23FF
:10107000121613060CF099C0C7010E943302182FF4
:10108000F3E08F22992483E090E0811B9109881678
:10109000990669F4C7016AE040E050E021E00E944F
:1010A00072026AE070E080E090E00E948C142CEF05
:1010B000C2221E5FC12A6FC0863009F076C0119629
:1010C0006C911197862F90E0FC0153E0F595E79520
:1010D0005A95E1F7EE0DFF1D27A130E08370907067
:1010E000F80102C0EE0FFF1F8A95E2F72E233F237F
:1010F000121613060CF059C0C7010E943302182FB4
:10110000F3E08F22992483E090E0811B91098816F7
:10111000990669F4C7016AE040E050E021E00E94CE
:1011200072026AE070E080E090E00E948C142CEF84
:10113000C2221E5FC12A125071F5F50190E00AC06B
:10114000DF0180813296823021F411962C9150E09B
:1011500007C09F5F9615A0F32FEFF9CF505C2C537B
:101160002D33E0F7D701ED91FC91338D832F90E083
:10117000820F911DCD972CF0432F4C5F450F420FEE
:1011800003C0452F420F430FC701652D50E020E0FB
:101190000E9472020FC0D701ED91FC91438D50E087
:1011A00040585F4FC701652DF2CF4F5F129646152D
:1011B00008F442CFD50140E061E070E036C08C9188
:1011C000833089F511968C91119790E0FC0133E002
:1011D000F595E7953A95E1F7EE0DFF1D27A130E073
:1011E00083709070FB0102C0EE0FFF1F8A95E2F73B
:1011F0002E233F2312161306B4F4C1FC0FC0F3E0F4
:10120000CF2AD701ED91FC91438D50E040585F4FBC
:10121000C701652D20E00E94720209C0C0FE07C010
:10122000BDEFCB2204C04F5F1296461540F2F50188
:1012300090E009C0DF01808132968B3019F411965D
:101240006C9104C09F5F9615A8F36FEF4C2D50E092
:1012500041705070C70121E00E94720290E00BC003
:10126000F501808122E030E0A20EB31E8A3011F435
:10127000618104C09F5F961598F36FEF4C2D50E08D
:101280004270507055954795C70121E00E94720247
:101290000F900F900F900F900F90CF91DF911F91B3
:1012A0000F91FF90EF90DF90CF90BF90AF909F9005
:1012B0008F907F906F905F900895CF92DF92EF9222
:1012C000FF921F93CF93DF93EC0110E072E6C72EDD
:1012D000D12CC80ED91E6CE6E62E62E0F62EE80E82
:1012E000F91E2AC0212F30E0C901880F991F880FED
:1012F000991F820F931FD701ED91FC91E80FF91F01
:101300000190F081E02D3097B1F0E230F10551F01D
:10131000E330F10561F0319771F4CE01612F0E9445
:10132000550309C0CE01612F0E943A0404C0CE01CA
:10133000612F0E9417071F5FF6018081181790F236
:10134000DF91CF911F91FF90EF90DF90CF900895A4
:101350002F923F924F925F926F927F928F929F92C5
:10136000AF92BF92CF92DF92EF92FF920F931F93B3
:10137000CF93DF936C01DC01ED91FC91848988238C
:1013800009F4D9C0CF010E94D71CF60181A18F3F7B
:10139000A1F0E2A0F3A004A115A10E947E14E6161C
:1013A000F7060807190748F4C601D60191966C9113
:1013B0000E94EB028FEFF60181A3D601ED91FC9123
:1013C0001197928D96968C919697891709F4B3C0D0
:1013D00096969C93BB24A5E62A2E312C2C0C3D1C02
:1013E000F7E0AF2EE0E74E2EE2E05E2E4C0C5D1CE7
:1013F00080C0BA9C30011124F201E080F180E60C3B
:10140000F71CD7018C91882309F472C011968C9136
:101410001197882E9924F601C081D18194012F71F2
:101420003070898D90E02817390709F061C0129655
:101430008C91082F10E098012F7330708A8D90E006
:101440002817390709F054C0C6010E9403028823F7
:1014500019F007FD6BC04CC02D893E8989A19AA166
:101460002817390709F04BC09F898BA1981709F0FD
:1014700046C0988D8CA1981709F041C006FD56C052
:1014800037C0D60191966C916F3F19F0C6010E944A
:10149000EB020E947E147B018C01D201ED91FC9144
:1014A000E60DF71D818182958695877090E0E8E8CA
:1014B000F3E18E9FB0018F9F700D9E9F700D1124E0
:1014C000882777FD8095982F0E9456156E0D7F1DF9
:1014D000801F911FD60192966D937D938D939C935F
:1014E00095979196BC9204C0C6016B2D0E94EB02A9
:1014F000B394F1018081B81608F47BCF1CC020E0C2
:1015000030E081E090E00C8C02C0880F991F0A94B3
:10151000E2F71816190614F421E030E0D70113960B
:101520008C9190E028233923232B11F3882D807E82
:1015300009F0A7CFD9CFDF91CF911F910F91FF90E5
:10154000EF90DF90CF90BF90AF909F908F907F9063
:101550006F905F904F903F902F9008951F93162F9C
:10156000F894862F61E00E94B814812F60E00E94F9
:10157000FB1483E090E00E94AE14812F60E00E9493
:10158000B8148AE090E00E94AE14812F0E942815C2
:10159000182F78948DE290E00E94AE14812F1F9155
:1015A0000895DF92EF92FF920F931F93CF93DF93F3
:1015B0007C01D62E00E011E0C0E0D0E0C7016D2D27
:1015C0000E94AE0A8111012B110F2196C830D1055E
:1015D000A9F7802FDF91CF911F910F91FF90EF908E
:1015E000DF900895FF920F931F93CF93DF93F62E12
:1015F000042FF894862F60E00E94FB148F2D61E089
:101600000E94B81410E0E801C170D07000FD03C062
:1016100081E490E002C08AE090E00E94AE148F2D39
:1016200061E00E94FB147894CD2B19F485E090E0E2
:1016300002C087E390E00E94AE14DF91CF911F912A
:101640000F91FF900895CF92DF92EF92FF920F9348
:101650001F93CF93DF936C01062F11E0C0E0D0E021
:10166000E42EFF2440E0812F90E08E219F21892BE2
:1016700009F041E0C601602F0E94F20A110F219685
:10168000C830D10579F7802F60E00E94B814802F10
:1016900060E00E94FB14DF91CF911F910F91FF90AA
:1016A000EF90DF90CF9008951F93162FF894862F18
:1016B00060E00E94FB14812F61E00E94B81480EE6C
:1016C00091E00E94AE14812F60E00E94B81486E47D
:1016D00090E00E94AE14812F0E942815182F8AE9ED
:1016E00091E00E94AE147894812F1F9108952F925B
:1016F0003F924F925F926F927F928F929F92AF92A2
:10170000BF92CF92DF92EF92FF920F931F93DF93DE
:10171000CF9300D000D0CDB7DEB76C0164E7A62E22
:1017200062E0B62EA80EB91ED501ED90FD900D9188
:101730001C910E947E14E616F7060807190710F0A0
:101740001A820DC00E947E146C597F4F8F4F9F4F9D
:10175000F5016083718382839383F1E0FA83D6017C
:10176000A858BD4F4C91642F70E09B012F733070CF
:10177000F60180819181FC01838D90E02817390763
:1017800011F0198222C047FD10C06733710514F0B3
:10179000475301C04B5F4C93F601E858FD4F8081E1
:1017A00080688083F1E0F98310C0242F2F772C9379
:1017B000822F90E0C2972CF022532C9322E02983B1
:1017C00004C0265F2C9332E039837724662450E6E8
:1017D000252E312C2C0C3D1C48E6A42E42E0B42EC4
:1017E000AC0CBD1C32E7432E32E0532E4C0C5D1C7A
:1017F0009AC193E0799EC00111249C838B83D5010B
:10180000ED91FC91E80FF91F9081992309F48AC1A9
:10181000892F807C803C09F085C1892F8F7D853C94
:1018200009F4BDC0863C70F4813C31F1823C20F467
:10183000803C09F077C111C0823C89F1833C09F0FA
:1018400071C184C0873C09F45DC0873CD0F1863EFD
:10185000C1F1873E09F066C155C081810E942815FB
:10186000482FD501ED91FC912B813C81E20FF31FB4
:1018700020E0882381F40EC081810E942815482F22
:10188000D501ED91FC912B813C81E20FF31F20E00B
:10189000813009F421E0C601628150E00FC08181EE
:1018A0000E942815482FD501ED91FC912B813C8198
:1018B000E20FF31FC601628150E021E00E94720234
:1018C00031C10E947E147B018C0182E390E0A0E094
:1018D000B0E0E80EF91E0A1F1B1F0CC0D501ED91E8
:1018E000FC912B813C81E20FF31F81810E9428151E
:1018F000892B09F10E947E146E157F0580079107E0
:1019000068F322C00E947E147B018C0182E390E088
:10191000A0E0B0E0E80EF91E0A1F1B1F0EC0D501A3
:10192000ED91FC912B813C81E20FF31F81810E949C
:101930002815019711F441E0B6CF0E947E146E1570
:101940007F058007910758F340E0ADCF3A813130F1
:1019500009F0E8C0862D90E0880F991FD201ED9123
:10196000FC91E80FF91F808191816EE10E94433163
:10197000D501ED91FC912B813C81E20FF31F40E0FA
:1019800050E0613471058105910514F041E050E0AB
:10199000C601628121E00E9472026394C3C0398152
:1019A0003130E9F4C60161810E94540BD501ED91FB
:1019B000FC912B813C81E20FF31FC60161814CEC4D
:1019C0000E94230BD501ED91FC912B813C81E20F0C
:1019D000F31FC601618144E40E94230BA3C0398137
:1019E000323009F09FC0C60161810E94540BD501BD
:1019F000ED91FC912B813C81E20FF31FC6016181C7
:101A00004CEC0E94230BD501ED91FC912B813C8184
:101A1000E20FF31FC60161814EEB0E94230BD5013B
:101A2000ED91FC912B813C81E20FF31FC601618196
:101A30000E94D10A082F10E0D501ED91FC912B8175
:101A40003C81E20FF31FC60161810E94D10A982EEA
:101A50008824080D191D000F111FD501ED91FC916F
:101A60002B813C81E20FF31FF280C6016F2D0E9493
:101A70003302BC013FEF8F3F930721F4C6016F2D66
:101A8000A80142C0980117FF04C022273327201B5A
:101A9000310BAB0177FF04C044275527461B570B7A
:101AA000C8018627972797FF1AC0C901840F951F81
:101AB000029768F14217530728F4C901841B950B5C
:101AC000AC0119C02417350718F040E050E01AC0E7
:101AD000421B530B5695479577FF14C010C0CA019F
:101AE00002962817390728F4C901029648175907A2
:101AF00070F0420F531F5695479517FF03C050953E
:101B000041955F4FC6016F2D21E00E947202D50101
:101B1000ED91FC912B813C81E20FF31FC6016181A5
:101B20000E94540B7394D1018C91781608F461CE05
:101B30000F900F900F900F90CF91DF911F910F9109
:101B4000FF90EF90DF90CF90BF90AF909F908F90DD
:101B50007F906F905F904F903F902F9008954F929D
:101B60005F926F927F928F929F92AF92BF92CF922D
:101B7000DF92EF92FF920F931F93CF93DF93EC01CD
:101B8000C05ADF4F5881C056D04090E040E020E07E
:101B900030E0DE01A859BD4F0CC0ED91FC911197CA
:101BA000E20FF31F8081833C09F49F5F4F5F2D5F3D
:101BB0003F4F451790F3892F90E0880F991F0E949F
:101BC0002B14FE01EE58FD4F918380839924CC2481
:101BD00090E6492E512C4C0E5D1E83E0882E08E6BF
:101BE000A02E02E0B02EAC0EBD1E3F0176C0C89CF8
:101BF00080011124D501ED91FC91E00FF11F60816E
:101C0000662309F469C0633CF1F4F180892D90E00A
:101C1000880F991FF30100811181080F191F8AE0B5
:101C200090E00E942E14E82ED92E4F2D4F70F29482
:101C3000BFE0FB226F2D0E94B032D801EC921196CA
:101C4000DC92939449C0653C71F4818160E00E940C
:101C5000B814D501ED91FC91E00FF11FCE01628126
:101C60004FEF5FEF1DC070E0CB018074907067FF95
:101C70001EC0892BC9F065FF03C0818162E002C0EC
:101C8000818160E00E94B814D501ED91FC91E00FD4
:101C9000F11F128181810E942815AC01CE01612FB4
:101CA00020E00E94720218C0818160E013C0892B7D
:101CB00051F060727070A5E075956795AA95E1F78F
:101CC00081810E94FB14D501ED91FC91E00FF11F81
:101CD000818161E00E94B814C394F2018081C8162A
:101CE00008F485CFDF91CF911F910F91FF90EF9076
:101CF000DF90CF90BF90AF909F908F907F906F902C
:101D00005F904F900895CF92DF92EF92FF920F93E2
:101D10001F93CF93DF93EC018C01005A1F4FC80132
:101D200060E070E048E050E02EEE31E00E94B60145
:101D3000CE01B80148E050E00E944630892B09F0FE
:101D400065C0B8E6CB2ED12CCC0EDD1EC859DD4FB8
:101D5000D982C882C856D240F801008183E0089F2A
:101D60008001112408591F4F9E01200F311F085672
:101D70001040C659DD4F39832883C950D24068814D
:101D800085E0689FB0011124260F371FC55FDD4F26
:101D900039832883CA50D2404881489FA00111242A
:101DA000240F351FC45FDD4F39832883CE56D240C0
:101DB000FE01E059FD4FCD59DF4F89919991880F70
:101DC000991F280F391F31832083060F171F080F13
:101DD000191F040F151F8881C556D04027E0829F28
:101DE000C0011124080F191FC60168E070E0A801A6
:101DF0002EEE31E00E94B601E88CF98CCE01B601DE
:101E0000A8010E944630E816F90621F0CE010E9492
:101E1000CC0609C0C15ADF4F81E08883CF55D0403E
:101E2000CE010E94AF0DDF91CF911F910F91FF90D6
:101E3000EF90DF90CF9008950F931F938C0181E076
:101E4000F801848F87E061E00E94B81487E0F80110
:101E5000648D0E94FB140E947E1468517C4F8F4F4A
:101E60009F4FF801658F768F878F90A38FEF81A3A7
:101E700086A3015A1F4FF8011082075E1D4FF8011B
:101E800010820E947E146C597F4F8F4F9F4FF80134
:101E900092938293729362938F0104571240C80108
:101EA0000E94830E1F910F910895AF92BF92CF921F
:101EB000DF92EF92FF920F931F938C0150E6E52E75
:101EC000F12CE80EF91E46EFA42E41E0B42E80E07E
:101ED00090E0B70148E050E095010E94D201F7017F
:101EE000E08083E0E89E700111240F591F4FF80134
:101EF000808125E0829FC0011124E80EF91E0E5F4B
:101F00001F4FF80180819181880F991FE80EF91EFB
:101F100082918F01829FC0011124E80EF91E0D5F8E
:101F20001F4FF80180810556104027E0829FC001B5
:101F30001124E80EF91E98E6C92ED12CC00ED11E30
:101F400088E090E0B601A70195010E94D201C80186
:101F5000B601A7010E944630F801918F808F8EE074
:101F6000E82EF12CE00EF11EC801B7014CE050E064
:101F70000E944630F801938F828F82EE93E0B70182
:101F80004EE050E095010E94D201C8010E94AF0DC1
:101F9000015A1F4F81E0F80180831F910F91FF903C
:101FA000EF90DF90CF90BF90AF9008952F923F9227
:101FB0004F925F926F927F928F929F92AF92BF9259
:101FC000CF92DF92EF92FF920F93DF93CF93CDB733
:101FD000DEB7A0970FB6F894DEBF0FBECDBF4C01A1
:101FE0005BAC6CAC4DAD5EAD6FAD22967FAC229715
:101FF00021967FAD219723963FAD239724962FAD51
:102000002497FC01118E108E052D0F77023009F4F4
:10201000ADC0033030F4002371F0013009F025C168
:102020008CC0043009F4DFC0043008F4BEC00530B1
:1020300009F01BC1EBC0805A9F4F98A38F8FFC0102
:102040004083F1E6EF2EF12CE80CF91CF7015083E8
:10205000E2E6CE2ED12CC80CD91CF601608353E6E3
:10206000A52EB12CA80CB91C972D80E0870F911DCF
:10207000F5019183808385E690E0880E991EF40136
:1020800030832BE93FEF820E931EC4016F8D78A140
:1020900046E050E00E944630E6E6F0E08E0E9F1EDD
:1020A000F401918380832AE93FEF820E931EF401AD
:1020B000E859FD4F88E690E0880E991E9182808253
:1020C000E8E9FFEF8E0E9F1EEF8DF8A1808123E0DF
:1020D000829FC001112488599F4F880D991D2AE6BF
:1020E00032E0820E931EF401819391934F01F70128
:1020F000408165E0469FA0011124480F591FF4015B
:10210000419351934F01F6012081269F90011124A4
:10211000240F351FF401219331934F01F501808184
:102120009181880F991F280F391FF4013183208373
:1021300020E93DEF820E931E98C083E0689EC001A7
:102140001124D401A859BD4FED91FC911197E80FCE
:10215000F91F4083ED91FC911197E80FF91F51830E
:10216000ED91FC91E80FF91F62837FC025E0629E2C
:1021700090011124DC01A659BD4FED91FC911197FE
:10218000E20FF31F4083ED91FC911197E20FF31FD3
:10219000962F80E0850F911D928381837383ED914B
:1021A000FC91E20FF31F748260C025E0629E9001F3
:1021B0001124DC01A459BD4FED91FC911197E20F60
:1021C000F31F952F80E0840F911D9183808362839C
:1021D000ED91FC91E20FF31F972D80E0870F911D89
:1021E0009483838342C0862D90E0880F991FD40189
:1021F000A259BD4FED91FC911197E80FF91F408353
:10220000ED91FC91E80FF91F51832FC087E0689E84
:10221000C0011124D401A059BD4FED91FC9111973B
:10222000E80FF91F4083ED91FC911197E80FF91F1A
:102230005183ED91FC911197E80FF91F6283ED91A5
:10224000FC911197E80FF91F7383ED91FC911197A1
:10225000E80FF91F7482ED91FC91E80FF91F922F9E
:1022600080E0830F911D9683858357FE82C0F40121
:10227000A080B180F50123843484F4014088518822
:10228000462D4F5FA2E6CA2ED12CC80CD91CF3E60E
:10229000EF2EF12CE80CF91CB4016B597F4FD401DF
:1022A000A05ABF4FE1E66E2E712C680C791C0330EA
:1022B000D9F0043030F4013051F0023009F054C04C
:1022C0000CC00430B9F0053009F04EC01DC08C912F
:1022D000481708F049C091E01CC0F30180814817FD
:1022E00008F042C092E015C0F60180814817E0F581
:1022F00093E00FC0242F30E0F701808191812817EF
:10230000390790F594E005C0FB018081481760F51E
:1023100095E03A8229825C824B821D828AE88E8314
:1023200082E08F834987906898872DB73EB72E51FA
:1023300030400FB6F8943EBF0FBE2DBFADB7BEB74D
:102340001196FE0131968EE101900D928150E1F7D8
:10235000C5010E940A208DB79EB74E960FB6F8941D
:102360009EBF0FBE8DBF08C00F5F40E0063008F46F
:102370009ECFC4010E94550FA0960FB6F894DEBF01
:102380000FBECDBFCF91DF910F91FF90EF90DF9007
:10239000CF90BF90AF909F908F907F906F905F9005
:1023A0004F903F902F9008952F923F924F925F92BF
:1023B0006F927F928F929F92AF92BF92CF92DF9255
:1023C000EF92FF920F931F93DF93CF93CDB7DEB7BA
:1023D000C654D0400FB6F894DEBF0FBECDBF8C01FF
:1023E0008FAF21961FAF2197805A9F4F9EAF8DAF21
:1023F000F801EF59FF4F2396FFAFEEAF2397AAE600
:102400006A2EA2E07A2E600E711EF5E0AF2EE8E093
:102410008E2E912C8C0E9D1EC80182599D4F2596A3
:102420009FAF8EAF2597F801E459FD4F2796FFAF78
:10243000EEAF279770E7272E72E0372E200E311E61
:1024400068E6462E62E0562E400E511E62C1F8012B
:1024500060817181CE0101960E94FE2A8E818B38A7
:10246000C9F18C3830F4873879F08A3809F051C1D5
:10247000BDC0803F39F0813F09F484C0823B09F040
:1024800048C188C0DD2475C0F80122893389F40170
:10249000808191812817390749F4F8012689378905
:1024A000F401848195812817390731F08FAD219689
:1024B0009FAD21970E946D30F801208D318DF40180
:1024C000868197812817390709F423C1C8010E9422
:1024D000CC061FC18DB79EB74E970FB6F8949EBF1E
:1024E0000FBE8DBFADB7BEB71196FE0131968EE11E
:1024F00001900D928150E1F7C8010E94D60F01C1F1
:10250000DA9CC0011124F301A081B181A80FB91F89
:102510008C91882369F1482F87FF2AC011962D914D
:102520003C91129789819A818217930719F02F5F46
:102530003F4FF1F4F801808191812B813C81FC01B6
:10254000838594852817390711F046FF11C09885B7
:1025500013968C911397981759F4698514968C915A
:10256000681731F44A85C80150E021E00E947202E8
:10257000D3942396EEADFFAD23978081D81608F44F
:10258000BFCFC7C04985C801688550E022E00E94DE
:102590007202BFC0F801C080D180F60183859485A6
:1025A00098A38F8F89819A819AA389A31BA2F2EFA6
:1025B000FCA333E03DA368856EA3C8010E943302EB
:1025C0008FA398A78DB79EB74E970FB6F8949EBF6E
:1025D0000FBE8DBFADB7BEB71196FE017F968EE1DF
:1025E00001900D928150E1F7C60189C0F801608128
:1025F0007181FB018385948598A38F8F89819A814E
:102600009AA389A31BA2FBE8FCA32885223001F131
:10261000233030F4222361F0213009F049C00BC08F
:10262000243059F12430D0F0253009F041C034C0B5
:10263000EDACFEAC3BC0898533E0839FC001112423
:10264000F201E080F180E80EF91E53E0B52E30C0B3
:1026500089858A9DC0011124F30108C089858A9D5E
:10266000C00111242796EEADFFAD2797E080F180E1
:10267000E80EF91E45E0B42E1BC0898590E0880F56
:10268000991F2596EEADFFAD2597E080F180E80E0D
:10269000F91EB2E0BB2E0CC08985F7E08F9FC00108
:1026A0001124F101E080F180E80EF91EA6E0BA2EB7
:1026B000F2E0BF0EBDA23EEFB30E2EA389858FA31D
:1026C0004E2DDE0198969701F90102C081918D93FC
:1026D0008E2F841B8B15D0F38DB79EB74E970FB6F8
:1026E000F8949EBF0FBE8DBFADB7BEB71196FE0169
:1026F0007F968EE101900D928150E1F7CB010E940F
:102700000A20EDB7FEB77E960FB6F894FEBF0FBE57
:10271000EDBFF801808191810E94EF2A882309F0A2
:1027200096CECA5BDF4F0FB6F894DEBF0FBECDBFAB
:10273000CF91DF911F910F91FF90EF90DF90CF909D
:10274000BF90AF909F908F907F906F905F904F90D1
:102750003F902F900895CF93DF93EC01A895888147
:1027600099810E9428210E947E142D8D3E8D4F8DCF
:1027700058A1261737074807590788F46C8D81E060
:1027800068276C8F87E00E94FB140E947E146851BA
:102790007C4F8F4F9F4F6D8F7E8F8F8F98A31FA27F
:1027A00018A619A61AA61BA61CA6C15ADF4F888117
:1027B000CF55D040882339F0A895CE010E94770BE1
:1027C000CE010E94A809A895CE010E94D411C15A39
:1027D000DF4F8881CF55D040882359F0A895CE018E
:1027E0000E945D09A895CE010E941406CE010E94A8
:1027F000D105DF91CF910895FF920F931F93DF933F
:10280000CF93CDB7DEB7C957D2400FB6F894DEBF2D
:102810000FBECDBF0E9456140E946A1489E228E1BF
:1028200030E00FB6F894A895209360000FBE809317
:1028300060008E010F5F1F4FC8010E947930C801F0
:102840000E941C0FF02E012FA8958F2D902F0E9413
:10285000AB13FACF08950E94530008950E945300CD
:1028600008951F920F920FB60F9211248F939F938A
:10287000AF93BF938091940190919501A09196019F
:10288000B09197010196A11DB11D80939401909381
:102890009501A0939601B0939701BF91AF919F913D
:1028A0008F910F900FBE0F901F90189580E090E0D1
:1028B00020E80FB6F89420936100809361000FBE6A
:1028C00088E10FB6F89480936000109260000FBE0C
:1028D0007894089515BC109294011092950110926D
:1028E00096011092970182E084BD16BC9AEF97BDC5
:1028F00018BC80936E0083E085BD08958FB7F8946F
:102900002091940130919501409196015091970149
:102910008FBFB901CA010895AB01BC012FB7F8946C
:102920008091940190919501A0919601B0919701A9
:102930002FBF480F591F6A1F7B1F2FB7F894809134
:10294000940190919501A0919601B09197012FBFAC
:1029500084179507A607B70780F30895019739F004
:10296000880F991F880F991F02970197F1F7089513
:10297000282F8830E8F481E090E002C0880F991F8A
:102980002A95E2F7282F662321F48AB1209528237F
:102990000DC0623049F48AB1922F909598239AB96C
:1029A0008BB1282B2BB908958AB1282B2AB9089509
:1029B000803100F530E02850304081E090E002C0E6
:1029C000880F991F2A95E2F7282F662329F484B1EE
:1029D0002095282324B90895623049F484B1922FB8
:1029E0009095982394B985B1282B25B9089584B181
:1029F000282B24B90895282F883090F481E090E0A6
:102A000002C0880F991F2A95E2F7982F662321F4B8
:102A10008BB19095982302C08BB1982B9BB90895E8
:102A20008031A8F430E02850304081E090E002C0CE
:102A3000880F991F2A95E2F7982F662329F485B10C
:102A40009095982395B9089585B1982B95B90895D7
:102A5000382F883070F429B181E090E002C0880FEF
:102A6000991F3A95E2F7682F70E030E062237323F4
:102A700016C0803118F06FEF70E016C043B1282FF8
:102A800030E02850304081E090E002C0880F991F6C
:102A90002A95E2F7682F70E050E0642375236115F2
:102AA000710511F061E070E0CB010895EF92FF92A3
:102AB0000F931F937B018C016115710581059105B1
:102AC00029F420E030E040E050E00BC00E94A80173
:102AD000A80197010E943834AC01CB01DA019C01B6
:102AE000AD01B901CA011F910F91FF90EF900895B8
:102AF0000F931F93CF93DF93EC01162F00E081E03B
:102B000090E00E94AE14AA81BB81ED91FC911197D7
:102B1000612F661F6627661F0190F081E02DCD01B1
:102B20000995110F81E090E00E94AE14A881B9814F
:102B3000ED91FC9111970190F081E02DCD0161E0C4
:102B40000995AC81BD81ED91FC9111970190F081C7
:102B5000E02DCD010995182B81E090E00E94AE1484
:102B6000A881B981ED91FC9111970190F081E02D40
:102B7000CD0160E0099581E090E00E94AE140F5F06
:102B8000083009F0BCCF812FDF91CF911F910F91B9
:102B90000895CF92DF92EF92FF920F931F93CF93FE
:102BA000DF937C01162FD42E052FC22E60320CF439
:102BB0001062F701A681B781ED91FC911197019008
:102BC000F081E02DCD0160E00995C701612F0E94E1
:102BD00078152D2D302FC901EC0104C06991C70172
:102BE0000E9478159E012D192C15C0F3D701169659
:102BF000ED91FC911797A081B1812D913C91CF016E
:102C000061E0F9010995DF91CF911F910F91FF903C
:102C1000EF90DF90CF900895AB0160E125E00E9436
:102C2000C9150895AB016BE025E00E94C915089510
:102C3000AB016AE025E00E94C9150895CF92DF92AA
:102C4000EF92FF920F931F93CF93DF937C01162F88
:102C5000D42E052FC22EFC01A681B781ED91FC91E7
:102C600011970190F081E02DCD0160E00995C70139
:102C7000612F0E9478152D2D302FC901EC0105C060
:102C8000C70160E00E94781589939E012D192C15CB
:102C9000B8F3D7011696ED91FC911797A081B181F9
:102CA0002D913C91CF0161E0F9010995DF91CF9120
:102CB0001F910F91FF90EF90DF90CF900895FF92BA
:102CC0000F931F938C01F62EFC01A681B781ED9125
:102CD000FC9111970190F081E02DCD0160E0099504
:102CE000C8016F2D0E947815C80160E00E94781518
:102CF000F82EF801A681B781ED91FC911197019012
:102D0000F081E02DCD0161E009958F2D1F910F918C
:102D1000FF90089567E00E945F1690E09595879573
:102D20008770089567E10E945F16817008950F9380
:102D30001F93CF93DF93EC01162F042F603208F41A
:102D40001062AE81BF81ED91FC9111970190F081ED
:102D5000E02DCD0160E00995CE01612F0E9478152C
:102D6000CE01602F0E947815AE81BF81ED91FC915C
:102D700011970190F081E02DCD0161E00995DF917F
:102D8000CF911F910F9108950F931F93CF93DF93CE
:102D9000EC01162F042F413208F000E2CE016CE165
:102DA0000E945F16282F002359F481E090E0012E45
:102DB00002C0880F991F0A94E2F7422F482B0BC0DC
:102DC00081E090E0012E02C0880F991F0A94E2F77B
:102DD000482F40954223CE016CE10E9497161F5E5A
:102DE000CE01612F402F0E949716DF91CF911F9146
:102DF0000F9108950F931F93CF93DF93EC01162F3C
:102E0000042F61E00E945F16282F163008F015E0AD
:102E1000002351F081E090E002C0880F991F1A95BD
:102E2000E2F7422F482B0AC081E090E002C0880FF1
:102E3000991F1A95E2F7482F40954223CE0161E091
:102E40000E949716DF91CF911F910F9108951F93C4
:102E5000CF93DF93EC01162FA885B985ED91FC91F6
:102E600011970190F081E02DCD0160E00995CE0130
:102E700066E00E945F16482F477F123008F04860D6
:102E8000CE0166E00E949716E885F985A081B181A0
:102E90002D913C91CF0161E0F9010995DF91CF912E
:102EA0001F910895462F4E7765E00E94971608956A
:102EB0000F931F938C0161EE40E00E949716C801AA
:102EC00067E00E945F16482FC80167E00E949716CE
:102ED000F801A085B185ED91FC9111970190F081E9
:102EE000E02DCD0160E00995C80160E00E945F1609
:102EF000482F4E7F4260C80160E00E949716F8019B
:102F0000A085B185ED91FC9111970190F081E02DA4
:102F1000CD0161E009951F910F9108950F931F93C3
:102F20008C0162EE40E00E949716C80167E00E94A3
:102F30005F16482FC80167E00E949716F801A08528
:102F4000B185ED91FC9111970190F081E02DCD01BB
:102F500060E00995C80160E00E945F16482F436059
:102F6000C80160E00E949716F801A085B185ED9137
:102F7000FC9111970190F081E02DCD0161E0099560
:102F80001F910F910895CF92DF92EF92FF920F93CE
:102F90001F938C0167E00E945F16C82EC80160E590
:102FA00043E50E949716C80167E00E945F16E82E6D
:102FB000C80160E543E50E94971680E0FF24DD2408
:102FC000EC24FD2490E8E916F10409F481E01F9156
:102FD0000F91FF90EF90DF90CF9008951F93CF93C4
:102FE000DF93EC01162F67E00E945F1687FF03C096
:102FF000112319F007C0112329F0CE0160E543E544
:103000000E949716DF91CF911F910895AF92BF92C2
:10301000DF92EF92FF920F931F93DF93CF93CDB781
:10302000DEB72C970FB6F894DEBF0FBECDBF7C0184
:1030300061E00E94EE1703E211E0DD245E010894D6
:10304000A11CB11C07C007E411E05E010894A11C9B
:10305000B11C3DC0F80181919191A191B1918F0175
:103060008983292F3A2F4B2F55272A839D014427E7
:1030700055272B838B2F9927AA27BB278C83C70122
:103080006D2DA50124E00E94C915D394F9E0DF1647
:1030900009F7D9CFDB01CA01022E04C0B695A79566
:1030A000979587950A94D2F78193285030408FEFF7
:1030B000283F380779F7C7016D2DA50124E00E944C
:1030C000C915D3940C5F1F4FEEE0DE1649F0F801EE
:1030D0004081518162817381F50128E130E0DACFCE
:1030E000C7016EE04BE551E02BE00E94C9158EE967
:1030F0008A8386E88B838BE08C838FEF8983C7017B
:1031000064E0A50124E00E94C9158981897F898333
:10311000C70164E0A50124E00E94C915C70160E071
:103120000E94EE172C960FB6F894DEBF0FBECDBFEF
:10313000CF91DF911F910F91FF90EF90DF90BF90A3
:10314000AF9008950F931F93CF93DF938C01FC01F1
:10315000A081B181ED91FC9111970280F381E02D66
:10316000CD010995F801A281B381ED91FC911197F0
:103170000280F381E02DCD010995F801A481B5818C
:10318000ED91FC9111970280F381E02DCD0109951D
:10319000F801A681B781ED91FC9111970280F3812E
:1031A000E02DCD010995F801A085B185ED91FC9147
:1031B00011970280F381E02DCD010995F801A085DA
:1031C000B185ED91FC9111970190F081E02DCD0139
:1031D00060E00995F801A681B781ED91FC91119706
:1031E0000190F081E02DCD0161E00995F801A08109
:1031F000B181ED91FC9111970190F081E02DCD010D
:1032000060E00995F801A281B381ED91FC911197DD
:103210000190F081E02DCD0160E0099562E370E05E
:1032200080E090E00E948C14C80160E00E94EE17DC
:10323000CAE0D1E0C801688149810E9497162296B0
:10324000F1E0CE31DF07B1F7C8016EE171E00E9415
:103250001816C8016EE171E00E941216C8016EE1F5
:1032600071E00E940C16C8016DE10E945F16882370
:1032700029F4C80160E543E70E949716C8016CE194
:103280004FE30E949716C8016DE147E00E94971630
:10329000C80160E040E00E94C416C80161E040E05F
:1032A0000E94C416C8010E94061862E370E080E024
:1032B00090E00E948C14DF91CF911F910F9108959F
:1032C00020E0FC0182819381892B09F421E0822F87
:1032D0000895DF93CF93CDB7DEB7FC018081918154
:1032E0009C0155E0220F331F5A95E1F7880F991F73
:1032F000281B390B46815781420F531F9E012B5FBC
:103300003F4F8EE1D9010D909D01DA010D92AD0183
:103310008150C1F7208131818481958101972817DF
:10332000390728F42F5F3F4F3183208302C0118279
:10333000108222813381848195812817390720F4F6
:103340002F5F3F4F33832283CF91DF910895CF9238
:10335000DF92EF92FF920F931F93CF93DF93EC01D5
:10336000DB0112964D915C9113974115510509F4BB
:1033700043C08D919C918417950720F09C01241BDC
:10338000350B07C0FB0124813581241B350B280F29
:10339000391FC901F5E0880F991FFA95E1F7220F4F
:1033A000331F821B930BDB011696ED91FC9117974F
:1033B000E80FF91FE080F18002811381C480D5807D
:1033C0009681DE011796292F30E0295F3F4F2C0FA1
:1033D0003D1F02C086818D933196A217B307D1F7A6
:1033E000F982E8821B830A83CC82DD829E8341506E
:1033F0005040FB0153834283CE01DF91CF911F9157
:103400000F91FF90EF90DF90CF9008950F931F934F
:103410008C01FC01118210821382128264837583F5
:103420009B01CB01B5E0880F991FBA95E1F7220FF8
:10343000331F821B930B0E942B14F8019783868302
:103440001F910F910895AF92BF92CF92DF92EF92AA
:10345000FF920F931F93CF93DF93DC01FB0189E26F
:1034600090E09C01429FC001439F900D529F900DA0
:1034700011240190F081E02DE80FF91FA580E6806E
:10348000F780008511856285738544855585B684EE
:10349000C784D0889189EF01FD013D96292F30E046
:1034A000235F3F4F2A0F3B1F02C0898981932196DA
:1034B000E217F307D1F71C969C931C971B96DC929E
:1034C0001B971A96CC921A971996BC921997189630
:1034D0005C934E93179716967C936E93159714965C
:1034E0001C930E9313971296FC92EE921197AC9246
:1034F000CD01DF91CF911F910F91FF90EF90DF9061
:10350000CF90BF90AF900895FC0189E290E0689F52
:103510009001699F300D789F300D1124A081B181F9
:10352000A20FB31F8C91803819F0E0E0F0E009C0E1
:103530001C920190F081E02DE20FF31F0680F781CD
:10354000E02DCF010895FC0189E290E09C01629F8B
:10355000C001639F900D729F900D11240190F08126
:10356000E02DE80FF91F468317820895DC0140E043
:1035700050E020E030E010C0ED91FC911197E20F97
:10358000F31F8081882321F08685861709F4108235
:103590004F5F5F4F275D3F4F12968D919C91139720
:1035A0004817590748F30895BF92CF92DF92EF92E0
:1035B000FF920F931F93DC0189E290E0689F9001D6
:1035C000699F300D789F300D1124ED91FC9111977A
:1035D000E20FF31FB080BB2021F1442319F0BA940D
:1035E000B082B3940D911C91020F131F0E947E14A0
:1035F0006B017C016B2D70E06F777070660F771F29
:1036000088EE93E00E940334882777FD8095982FF9
:103610006C0D7D1D8E1D9F1DF80161837283838358
:1036200094831F910F91FF90EF90DF90CF90BF9008
:103630000895EF92FF920F931F93FC0189E290E0AF
:103640009C01629FC001639F900D729F900D112499
:103650000190F081E02DE80FF91F8081882311F49B
:1036600020E00DC0E180F280038114810E947E146D
:1036700020E0E616F7060807190708F421E0822F74
:103680001F910F91FF90EF9008952F923F924F92CC
:103690005F926F927F928F929F92AF92BF92CF92E2
:1036A000DF92EF92FF920F931F93DF93CF9300D09F
:1036B0000F92CDB7DEB76C019CAD388C498C5A8C1B
:1036C0006B8C7C8C8D8C9E8CAF8CB8A029A08AA131
:1036D0008B83ABA1AA83BCA1B983F60162817381FC
:1036E00020E030E0EE24FF2464C0D601ED91FC918F
:1036F000EE0DFF1DA701475D5F4F8081882309F014
:1037000055C0913009F090689083F60100811181D5
:103710000E0D1F1D0E947E14D80111966D937D938E
:103720008D939C931497D601ED91FC911197EE0D1A
:10373000FF1D3582ED91FC911197EE0DFF1D578213
:1037400046827186608693868286B586A4862686A2
:10375000ED91FC91EE0DFF1DBB81B787D601ED9178
:10376000FC91EE0DFF1DBA81B08BD601ED91FC915D
:10377000EE0DFF1DB981B18B90E09E012B5D3F4F97
:103780000AC0E92FF0E0AE0FBF1FE20FF31F8081E8
:1037900052968C939F5FF601A081B181AE0DBF1D43
:1037A00051968C915197981760F307C02F5F3F4F48
:1037B0007A012617370708F498CF0F900F900F90D3
:1037C000CF91DF911F910F91FF90EF90DF90CF90FD
:1037D000BF90AF909F908F907F906F905F904F9031
:1037E0003F902F900895DF93CF93CDB7DEB7AC0114
:1037F0008DB79EB785970FB6F8949EBF0FBE8DBF4D
:103800002DB73EB72F5F3F4FD901FE01359684E2B9
:1038100001900D928150E1F785E0F90184A3CA017E
:103820000E94451B8DB79EB785960FB6F8949EBF34
:103830000FBE8DBFCF91DF9108950F931F93CF934C
:10384000DF938C01DC0112966C93129713967C9394
:10385000EB0189E290E0FC016E9FC0016F9F900D2B
:103860007E9F900D11240E942B14D8018D939C9360
:1038700020E030E080E090E009C0D801ED91FC91BB
:10388000E80FF91F10822F5F3F4F89962C173D07D5
:10389000A0F3DF91CF911F910F910895CF93DF9304
:1038A000DC01EB016D917C91119740E050E020E04C
:1038B00030E011C01296ED91FC911397E20FF31FC7
:1038C0002D5F3F4F808191818C179D0711F482817C
:1038D00006C04F5F5F4F4617570760F38FEFDF91CA
:1038E000CF9108951F93CF93DF93EC01142F48815C
:1038F0005981A0E0B0E020E030E00CC0EA81FB811B
:10390000E20FF31F2D5F3F4F80819181861797074C
:10391000A9F01196A417B50788F320E030E080E005
:1039200090E011C0EA81FB81E80FF91FDC011396DA
:1039300080819181892B21F471836083128306C079
:103940002F5F3F4FCD012417350760F3DF91CF91F3
:103950001F9108950F931F93CF93DF938C01DC0188
:103960006C9311967C93EB01CB01880F991F860F06
:10397000971F0E942B14F8019383828320E030E08C
:1039800080E090E00CC0D8011296ED91FC91139765
:10399000E80FF91F118210822F5F3F4F03962C17FB
:1039A0003D0788F3DF91CF911F910F910895AF925A
:1039B000BF92CF92DF92EF92FF920F931F93CF931C
:1039C000DF93EC010E947E145B016C018D8D9E8D56
:1039D000AF8DB8A1A6019501281B390B4A0B5B0BD3
:1039E000CA01B90128EE33E040E050E00E941634ED
:1039F00079018A01E114F1040105110509F4A5C05A
:103A0000AD8EBE8ECF8ED8A2C801B7012CE330E0B8
:103A100040E050E00E9416342B8DCB01820F911DA7
:103A20005B01CC24DD24CC9728F4260F2B8FC80112
:103A3000B70109C02C53260F2B8FC801B701645C56
:103A40007F4F8F4F9F4F6A197B098C099D092CE38B
:103A500030E040E050E00E94163479018A01E11420
:103A6000F1040105110509F470C0C801B7012CE388
:103A700030E040E050E00E9416342A8DCB01820FE6
:103A8000911D5B01CC24DD24CC9728F4260F2A8FCE
:103A9000C801B70109C02C53260F2A8FC801B701EE
:103AA000645C7F4F8F4F9F4F6A197B098C099D097A
:103AB0002CE330E040E050E00E94163479018A01A6
:103AC000E114F1040105110509F43FC0C801B70173
:103AD00028E130E040E050E00E941634298DCB010F
:103AE000820F911D5B01CC24DD24489728F4260F1A
:103AF000298FC801B70109C02851260F298FC80195
:103B0000B701685E7F4F8F4F9F4F6A197B098C0901
:103B10009D0928E130E040E050E00E941634B901F0
:103B2000CA01611571058105910579F027E030E042
:103B300040E050E00E9416342C8DCB01820F911D85
:103B4000079708F02750260F2C8FDF91CF911F91F8
:103B50000F91FF90EF90DF90CF90BF90AF900895BE
:103B6000EF92FF920F931F938C017B01DC011A9659
:103B70006C91C70170E00E94392DF801828590E0B8
:103B8000880F991F0084F185E02DE80FF91FF1825D
:103B9000E082D8011A968C911A978F5F1A968C93AF
:103BA0001F910F91FF90EF9008957F928F929F92B7
:103BB000AF92BF92CF92DF92EF92FF920F931F933B
:103BC000DF93CF93CDB7DEB78C016B01EA88FB881A
:103BD000A888B9887C888D889E888FEFE8168FEF3B
:103BE000F80621F4F801F282E18209C0FB0180812C
:103BF0009181B7010E94932CF80192838183F60191
:103C000063857485A114B10421F4F801768365837A
:103C100003C0F801B682A582FE017796D8011D96F1
:103C2000292D30E0295F3F4F80E190E08C0F9D1FF0
:103C3000280F391F02C081918D93E217F307D9F73E
:103C4000F801948681E0838782867186F086E78218
:103C5000748363838FEF8083C801CF91DF911F91BD
:103C60000F91FF90EF90DF90CF90BF90AF909F901B
:103C70008F907F9008950F931F93DF93CF93CDB7CD
:103C8000DEB78C018989F8014481558187FF1EC008
:103C90008DB79EB784970FB6F8949EBF0FBE8DBFA9
:103CA000ADB7BEB71196FE01379684E201900D9232
:103CB0008150E1F7CA010E94F31BEDB7FEB7B4963D
:103CC0000FB6F894FEBF0FBEEDBF22C08DB79EB7F2
:103CD00085970FB6F8949EBF0FBE8DBF2DB73EB728
:103CE0002F5F3F4FD901FE01379684E201900D927C
:103CF0008150E1F781E0F90184A3CA010E94451BCC
:103D00008DB79EB785960FB6F8949EBF0FBE8DBF38
:103D1000C8010E942821CF91DF911F910F91089532
:103D2000DF93CF93CDB7DEB7A4970FB6F894DEBF7D
:103D30000FBECDBFFC012385348593899F5F938B94
:103D4000915085858E8786858F878785888B80892A
:103D5000898B81898A8B82898B8B86E08D8781E034
:103D60008C8784E08B879A87198618863F832E83F9
:103D70003D832C838FEF9FEF9B838A838FEF898313
:103D80008DB79EB784970FB6F8949EBF0FBE8DBFB8
:103D90002DB73EB72F5F3F4FAE014F5F5F4F84E2BD
:103DA000DA010D90AD01D9010D929D018150C1F74D
:103DB000CF010E943B1E8DB79EB784960FB6F89434
:103DC0009EBF0FBE8DBFA4960FB6F894DEBF0FBE88
:103DD000CDBFCF91DF910895DF93CF93CDB7DEB7FD
:103DE000A4970FB6F894DEBF0FBECDBFDC018FEFF6
:103DF00089838FEF9FEF9B838A831B968D919C9184
:103E00001C979D838C839F838E83798768875396C5
:103E10008C9153978A878F5F53968C93539783E047
:103E20008B8781E08C871D868DB79EB784970FB6F0
:103E3000F8949EBF0FBE8DBF2DB73EB72F5F3F4F8B
:103E4000AE014F5F5F4F84E2FA010190AF01F901CB
:103E500001929F018150C1F7CD010E943B1E8DB799
:103E60009EB784960FB6F8949EBF0FBE8DBFA496E2
:103E70000FB6F894DEBF0FBECDBFCF91DF9108958E
:103E80002F923F924F925F926F927F928F929F926A
:103E9000AF92BF92CF92DF92EF92FF920F931F9358
:103EA000DF93CF93CDB7DEB7A4970FB6F894DEBFFC
:103EB0000FBECDBF8C016F964FAC6F972296EEACC4
:103EC000FFAC22978EAC9FAC23965FAC23972496D1
:103ED0006FAC24972596CFAC25972696DFAC269716
:103EE0006E968FAD6E97882329F077247A946FEFC2
:103EF0007FEF17C0F80180819181B7010E946E2C7D
:103F0000882309F46DC0F80180819181B7010E9476
:103F1000BB2C782EF80180819181B7010E94932CEF
:103F2000BC01F801B384A484442011F49D2D07C082
:103F30008D2D90E046970CF053C09D2D9E5F46E47A
:103F4000242E312C2C0E3D1EAE01425F5F4FAD2D55
:103F5000B0E01D9629E330E02C0F3D1F2A0F3B1FD8
:103F60001D9706C0F10181911F01FA018193AF01F4
:103F700022163306B9F7442029F0FE01EA0FFB1F91
:103F8000B686A7869D87C394CC866B865A86F986AB
:103F9000E8869F828E82BC82AD827B836A8379822F
:103FA0002DB73EB7245230400FB6F8943EBF0FBE37
:103FB0002DBFADB7BEB71196FE01319684E20190D8
:103FC0000D928150E1F7C8010E943B1E81E0EDB7E0
:103FD000FEB7B4960FB6F894FEBF0FBEEDBF01C09A
:103FE00080E0A4960FB6F894DEBF0FBECDBFCF9190
:103FF000DF911F910F91FF90EF90DF90CF90BF90D6
:10400000AF909F908F907F906F905F904F903F9078
:104010002F900895CF92DF92EF92FF921F93DF933C
:10402000CF93CDB7DEB7A4970FB6F894DEBF0FBE1F
:10403000CDBF7C01C8A8D9A82DB73EB72E513040BE
:104040000FB6F8943EBF0FBE2DBFADB7BEB71196E9
:10405000FE01BE968EE101900D928150E1F7CE01F6
:104060000196B7010E94D51DF70113891F5F138BBD
:1040700011508E819F8101972DB73EB7225E3F4F31
:104080000FB6F8943EBF0FBE2DBF8E5F9F4F20F03E
:10409000838594859F838E838FEFC8168FEFD80614
:1040A00041F08A819B81892B21F4C701B6010E94CE
:1040B000EC1E1A87EDB7FEB7B4970FB6F894FEBFA3
:1040C0000FBEEDBFADB7BEB71196FE01319684E2CB
:1040D00001900D928150E1F7C7010E943B1E2DB760
:1040E0003EB72C5D3F4F0FB6F8943EBF0FBE2DBFBD
:1040F00081E0A4960FB6F894DEBF0FBECDBFCF917E
:10410000DF911F91FF90EF90DF90CF900895DF93A4
:10411000CF93CDB7DEB76E970FB6F894DEBF0FBE64
:10412000CDBF9C01FC01838594859A8389837C8320
:104130006B831D8289E08E831F828DB79EB74E9759
:104140000FB6F8949EBF0FBE8DBFADB7BEB7119628
:10415000FE0131968EE101900D928150E1F7C90187
:104160000E940A20EDB7FEB77E960FB6F894FEBF08
:104170000FBEEDBF6E960FB6F894DEBF0FBECDBF7B
:10418000CF91DF910895EF92FF920F931F93DF93EA
:10419000CF93CDB7DEB76E970FB6F894DEBF0FBEE4
:1041A000CDBF7C01DC011B968D919C911C979A835D
:1041B00089838FEF9FEF9C838B831D8284E88E839E
:1041C00082E08F838B01000F111F060F171F000F56
:1041D000111FED91FC910680F781E02DE00FF11F9A
:1041E0008081918188879987EDB7FEB77E970FB65A
:1041F000F894FEBF0FBEEDBFADB7BEB71196FE017E
:1042000031968EE101900D928150E1F7C7010E9435
:104210000A20D701ED91FC910680F781E02DE00F97
:10422000F11F11821082EDB7FEB77E960FB6F8949B
:10423000FEBF0FBEEDBF6E960FB6F894DEBF0FBE89
:10424000CDBFCF91DF911F910F91FF90EF90089517
:104250006F927F928F929F92AF92BF92CF92DF9296
:10426000EF92FF920F931F93DF93CF93CDB7DEB7FB
:10427000A4970FB6F894DEBF0FBECDBF6C01AA2481
:10428000BB243E010894611C711CF7C0CF01B5012D
:104290000E94191B882309F4EDC0D60114968D9154
:1042A0009C911597B5010E94841A892B29F100E091
:1042B00010E0EE24FF2418C00680F781E02DEE0DFB
:1042C000FF1D80819181892B49F082819381801724
:1042D000910721F4C601B8010E94C3200F5F1F4F50
:1042E000E6E0F0E0EE0EFF1ED601ED91FC91848138
:1042F00095810817190704F3F60164817581C301DC
:10430000A5010E94231A89800A811B81E884F9840F
:10431000FFEFEF16FFEFFF06A9F10115110541F0C0
:104320008FEF0F3F180771F19FEF891609F066C0F4
:10433000D6018D919C91B7010E946E2C8823D1F0FB
:10434000F60180819181B7010E94BB2C882ED60195
:104350008D919C91B7010E94932C8C01F601848170
:104360009581B501402F0E94A31AFFEF0F3F1F0751
:1043700049F044C0D60114968D919C911597B501D2
:1043800040E076C0992434C0892D90E0880F991FB1
:10439000D6011896ED91FC911997E80FF91F20812D
:1043A0003181D901ED91FC914281538189821B8336
:1043B0000A83F986E886EDB7FEB7B4970FB6F8948E
:1043C000FEBF0FBEEDBFADB7BEB71196F30184E2DD
:1043D00001900D928150E1F7C901FA01099593947A
:1043E0008DB79EB784960FB6F8949EBF0FBE8DBF53
:1043F000D6011A968C91981638F233C0882D90E029
:10440000880F991FD6011896ED91FC911997E80F26
:10441000F91F20813181D901ED91FC9142815381B5
:1044200089821B830A83F986E886EDB7FEB7B497C5
:104430000FB6F894FEBF0FBEEDBFADB7BEB7119675
:10444000F30184E201900D928150E1F7C901FA0174
:1044500009958DB79EB784960FB6F8949EBF0FBE90
:104460008DBFD60114968D919C911597B50141E0B1
:104470000E94D41A0894A11CB11CD6011496ED9187
:10448000FC91159782819381A816B90608F4FECE97
:10449000A4960FB6F894DEBF0FBECDBFCF91DF91CB
:1044A0001F910F91FF90EF90DF90CF90BF90AF9052
:1044B0009F908F907F906F900895FF920F931F931E
:1044C000CF93DF93EC018B01888199810E94CA2BE5
:1044D000FF2416C08F2D90E0880F991FE885F9857D
:1044E000E80FF91FA081B181ED91FC911197019026
:1044F000F081E02DCD01B8010995882339F0F394BE
:104500008A85F81638F31C870B8781E0DF91CF91FD
:104510001F910F91FF9008952F923F924F925F92BB
:104520006F927F928F929F92AF92BF92CF92DF92C3
:10453000EF92FF920F931F93DF93CF93CDB7DEB728
:10454000CD59D0400FB6F894DEBF0FBECDBF7C0171
:10455000CB57DF4F1882C558D0407DE3672E712CB2
:104560006C0E7D1E60E4262E312C2C0E3D1E51E675
:10457000A52EB12CAC0EBD1E9501235F3F4FC65634
:10458000DF4F39832883CA59D040C3014396C456AC
:10459000DF4F99838883CC59D040D1C7D701189673
:1045A000ED91FC911997CA57DF4F28813981C65880
:1045B000D040E20FF31FA081B181ED91FC911197E2
:1045C0000680F781E02DC301BD010995D1014D9110
:1045D0005C91BFEF4F3F5B0709F48CC724966EAD2B
:1045E0007FAD2497F701238534856217730709F49B
:1045F00081C728968FAD289787FF43C08DADD50121
:104600008C9312965C934E93119714963C932E9331
:104610001397F2018081918116969C938E93159742
:1046200018967C936E931797D70153968C91539756
:10463000F50181878F5F53968C9381E08287838712
:10464000848727968FAD279785872DB73EB724524D
:1046500030400FB6F8943EBF0FBE2DBFADB7BEB70A
:10466000119684E201900D928150E1F7C7010E94FA
:104670003B1E8DB79EB784960FB6F8949EBF0FBEB3
:104680008DBF24966EAD7FAD249761157105B1F095
:10469000D70116968D919C9117970E944E1C2796D4
:1046A0004FAD2797841709F425C724966EAD7FADCB
:1046B0002497F701868197810E94721CD1014D9148
:1046C0005C91F70180819181BA01CB57DF4F28813E
:1046D000C558D04001E00E94CB2B24966EAD7FAD33
:1046E0002497D1014D915C91F70180819181CB5745
:1046F000DF4F2881C558D04029960FAD29970E94D9
:10470000CB2B28962FAD2897213809F4F3C62238F1
:10471000F0F4253009F499C3263048F42330A9F188
:10472000243008F0BFC2213009F01CC65DC028301B
:1047300009F49DC4293020F4263009F013C69DC326
:104740002A3009F4DFC3203809F00CC6F2C226383B
:1047500009F41FC5273850F4243809F461C22538FC
:1047600008F0B5C2233809F0FDC58DC12D3809F414
:1047700002C32E3820F4283809F0F4C522C52039A8
:1047800031F0203F09F0EEC534C510E06EC0D20113
:104790002D913C91F701838594852817390761F4A1
:1047A00028E088E190E00FB6F894A8958093600027
:1047B0000FBE20936000FFCF2DB73EB7265230408A
:1047C0000FB6F8943EBF0FBE2DBFEDB7FEB73196C2
:1047D0009F01A30184E2DA010D90AD01D9010D9290
:1047E0009D018150C1F779C6D70114968D919C9196
:1047F00015972B966FAD2B970E94B61A7BC6EBE4EC
:10480000F0E0EC0FFD1FEA0FFB1F8081C757DF4F61
:104810008883C958D040C857DF4F1882C858D04045
:10482000EAE4F0E0EC0FFD1FAE0FBF1F8C91C857FC
:10483000DF4F68817981C858D040680F711D6217B9
:10484000730791F0D1014D915C9129960FAD299795
:104850000F5F011BF70180819181CB57DF4F2881CA
:10486000C558D0400E94CB2B1F5FA12FB0E0AA0FEC
:10487000BB1F2A960FAD2A97402F50E0F7012385E2
:104880003485A417B5070CF4BACF2496EEADFFAD6E
:104890002497E217F30709F42DC6463151050CF0B1
:1048A00029C6D2016D917C916217730709F05CC033
:1048B0008DADD5018C93D1018D919C91D50112962E
:1048C0009C938E93119714967C936E9313971696E0
:1048D0007C936E9315971896FC93EE931797F701B8
:1048E000838919968C9319978F5F838B83E81A9627
:1048F0008C931A9781E01B968C931B970E5F1C96E6
:104900000C93F3013D96C656DF4FA881B981CA5971
:10491000D0409A01235F3F4FA301420F531F2D50F8
:10492000304002C081918D93E417F507D9F7D70184
:104930001B968C911B971C969C91F501E20FF31F1F
:1049400085879687EDB7FEB7B4970FB6F894FEBF8C
:104950000FBEEDBFADB7BEB71196F50184E2019071
:104960000D928150E1F7D8C4D7018D919C910E949E
:104970006E2C882309F46DC08DADF5018083D101C3
:104980008D919C9192838183F70183859485D501D4
:1049900014969C938E93139716969C938E931597CB
:1049A00024968EAD9FAD249718969C938E9317975F
:1049B000838919968C9319978F5F838B83E81A9656
:1049C0008C93F20160817181D7018D919C910E943D
:1049D000E02C29969FAD2997980FF50193872A9689
:1049E0008FAD2A978E5F84878250F3013D96C6561D
:1049F000DF4FA881B981CA59D040282F30E0235F0A
:104A00003F4FA301420F531F2D50304002C08191F0
:104A10008D93E417F507D9F7D7011B968C911B9757
:104A20001C969C91F501E20FF31F85879687EDB7E1
:104A3000FEB7B4970FB6F894FEBF0FBEEDBFADB78B
:104A4000BEB71196F50184E201900D928150E1F715
:104A500063C48DB79EB786970FB6F8949EBF0FBEFE
:104A60008DBFEDB7FEB731969F01A30184E2DA0155
:104A70000D90AD01D9010D929D018150C1F781E0EA
:104A800084A385A32CC5D7011B964D915C911C97DF
:104A9000F2018081918184179507C1F12A968FAD2B
:104AA0002A97682F70E020E029C0EBE4F0E0EC0FDB
:104AB000FD1FEA0FFB1F3081C557DF4F3883CB58EE
:104AC000D040C657DF4F1882CA58D0408AE490E0E1
:104AD0008C0F9D1FA80FB91F8C91C657DF4FA8815F
:104AE000B981CA58D040A80FB11D2F5FA417B507D0
:104AF00029F4D22EBFEF2B1751F4FCC4A22FB0E043
:104B0000AA0FBB1FA617B70784F2F4C4DD24AD2D8E
:104B1000B0E0AA0FBB1F2A968FAD2A9790E0A81786
:104B2000B9070CF05CC0EBE4F0E0EC0FFD1FEA0FFE
:104B3000FB1F2081C357DF4F2883CD58D040C45777
:104B4000DF4F1882CC58D0408AE490E08C0F9D1F34
:104B5000A80FB91F8C91C457DF4F88809980CC581B
:104B6000D040880E911C10E02CC0EBE4F0E0EC0F7C
:104B7000FD1FEA0FFB1F9081C157DF4F9883CF586D
:104B8000D040C257DF4F1882CE58D040EAE4F0E060
:104B9000EC0FFD1FAE0FBF1F8C91C257DF4F688116
:104BA0007981CE58D040680F711DD7018D919C91AD
:104BB000A401CB57DF4F2881C558D040012F0E9458
:104BC000CB2B812F8D0DA82FB0E0AA0FBB1F1F5F2D
:104BD0002A968FAD2A9790E0A817B90734F2F20110
:104BE00020813181D7011B968D919C911C972817AC
:104BF000390709F47FC4EDB7FEB7B6970FB6F8943E
:104C0000FEBF0FBEEDBF31969F01A30184E2DA0122
:104C10000D90AD01D9010D929D018150C1F75DC488
:104C20002C96FFAD2C97CF56DF4FF883C159D0405B
:104C3000C057DF4F1882C059D0402B968FAD2B97AD
:104C4000C057DF4F88809980C059D040880E911C92
:104C500000E010E0CC24DD241CC00680F781E02DAC
:104C6000EC0DFD1D808191818815990561F42281EB
:104C70003381D1018D919C912817390721F4C70107
:104C8000B8010E94C3200F5F1F4FE6E0F0E0CE0E98
:104C9000DF1ED701ED91FC918481958108171907DA
:104CA000E4F228C4EDB7FEB7B6970FB6F894FEBF8E
:104CB0000FBEEDBF31969F01A30184E2DA010D9092
:104CC000AD01D9010D929D018150C1F748C3D701B3
:104CD0001B968D919C911C97892BA1F4F3013D9615
:104CE00090811D968C911D97981761F431961196BD
:104CF000C456DF4F28813981CC59D040E217F307E1
:104D000079F737C48DB79EB786970FB6F8949EBFD4
:104D10000FBE8DBFEDB7FEB731969F01A30184E2B0
:104D2000DA010D90AD01D9010D929D018150C1F7BD
:104D300016C3D2012D913C91F701838594852817E4
:104D4000390709F4D7C32DB73EB7265230400FB606
:104D5000F8943EBF0FBE2DBFEDB7FEB731969F0151
:104D6000A30184E2DA010D90AD01D9010D929D01FC
:104D70008150C1F7B2C3D2012D913C91F7018385D7
:104D800094852817390709F049C08DADD5018C935A
:104D9000F1018081918112969C938E9311971496C4
:104DA0003C932E93139716963C932E931597249627
:104DB0008EAD9FAD249718969C938E931797D7012D
:104DC00053968C915397F50181878F5F53968C93FF
:104DD0008EE8828781E08387848727968FAD279727
:104DE00085872DB73EB7245230400FB6F8943EBFAA
:104DF0000FBE2DBFADB7BEB7119684E201900D92E4
:104E00008150E1F7C7010E943B1E8DB79EB7849683
:104E10000FB6F8949EBF0FBE8DBF6CC3ADB7BEB7C3
:104E200096970FB6F894BEBF0FBEADBFEDB7FEB7F5
:104E300031969F01A30184E2DA010D90AD01D90101
:104E40000D929D018150C1F748C32DB73EB7265240
:104E500030400FB6F8943EBF0FBE2DBFEDB7FEB782
:104E600031969F01A30184E2DA010D90AD01D901D1
:104E70000D929D018150C1F772C20E947E14D7012C
:104E80005D966D937D938D939C939097F3013D96E2
:104E9000D3011D968D919C911E97D70156969C9398
:104EA0008E935597828157968C9357978381589606
:104EB0008C935897848159968C93599785815A96EB
:104EC0008C935A9786815B968C935B9787815C96CF
:104ED0008C935C9781E054968C93EDB7FEB7B697B0
:104EE0000FB6F894FEBF0FBEEDBF31969F01A30130
:104EF00084E2DA010D90AD01D9010D929D0181503E
:104F0000C1F72DC2D2012D913C91F7018385948583
:104F10002817390709F472C02F5F3F4F09F081C08D
:104F20006DC0109F900111241696ED91FC9117977A
:104F3000E20FF31F80819181892B09F45DC08DAD53
:104F4000F5018083F10180819181F5019283818354
:104F5000F70183859485F501948383839683858304
:104F600024968EAD9FAD249790878783F701838920
:104F7000F50181878F5FF701838BF501C286D386A8
:104F800004871696ED91FC911797E20FF31F80812D
:104F90009181D5011D968C931D971E969C931E970B
:104FA000828193811F968C931F9750969C93509764
:104FB000848151968C935197858152968C93EDB74D
:104FC000FEB7B4970FB6F894FEBF0FBEEDBFADB7F6
:104FD000BEB71196F50184E201900D928150E1F780
:104FE000C7010E943B1E2DB73EB72C5D3F4F0FB649
:104FF000F8943EBF0FBE2DBF1F5F06C010E006E055
:105000008FE8C82EDD24D394F701A081B181212F30
:1050100030E014968D919C911597281739070CF460
:1050200080CFD2014D915C91F7018385948548171B
:10503000590709F45FC22DB73EB7265230400FB66C
:10504000F8943EBF0FBE2DBFEDB7FEB731969F015E
:10505000B30184E2DB010D90BD01D9010D929D01E8
:105060008150C1F74F5F5F4F09F07AC178C12C962C
:10507000FFAD2C97CD56DF4FF883C359D040CE56A5
:10508000DF4F1882C259D0402B968FAD2B97CE564A
:10509000DF4F28813981C259D040280F311DD701F7
:1050A00092963C932E9391972D968FAD2D97939634
:1050B0008C9393972E968FAD2E9794968C936096A3
:1050C000BFAD6097CB56DF4FB883C559D040CC56A3
:1050D000DF4F1882C459D040FE01E25BFF4F808150
:1050E000CC56DF4FE881F981C459D040E80FF11D5B
:1050F000D7019696FC93EE93959761968FAD619745
:1051000097968C93979762968FAD629798968C93AB
:10511000FE01ED5AFF4FB081C956DF4FB883C75922
:10512000D040CA56DF4F1882C659D040FE01EE5A11
:10513000FF4F8081CA56DF4FE881F981C659D040C0
:10514000E80FF11DD7019A96FC93EE939997FE0113
:10515000EC5AFF4F80819B968C939B97FE01EB5AF4
:10516000FF4F80819C968C93EDB7FEB7B6970FB634
:10517000F894FEBF0FBEEDBF31969F01A30184E2FC
:10518000DA010D90AD01D9010D929D018150C1F759
:10519000E6C02DB73EB7265230400FB6F8943EBF5A
:1051A0000FBE2DBFEDB7FEB731969F01A30184E27C
:1051B000DA010D90AD01D9010D929D018150C1F729
:1051C0008CC12DB73EB7265230400FB6F8943EBF83
:1051D0000FBE2DBFEDB7FEB731969F01A30184E24C
:1051E000DA010D90AD01D9010D929D018150C1F7F9
:1051F00074C1D70112960D911C911397D501F3013B
:1052000084E201900D928150E1F7F50164855285A9
:10521000418527813085858196819A8389833C8366
:105220002B834D835E836F83C656DF4FE881F98100
:10523000CA59D040DE01189670E0635F7F4F6A0D57
:105240007B1D02C081918D93E617F707D9F72DB723
:105250003EB72E5130400FB6F8943EBF0FBE2DBF63
:10526000ADB7BEB71196FE0131968EE101900D9259
:105270008150E1F7C8010E946919D2012D913C913A
:10528000EDB7FEB77E960FB6F894FEBF0FBEEDBF2A
:10529000D7011B968D919C911C972817390709F00F
:1052A00048C08DADF5018083D1018D919C91928391
:1052B0008183348323833683258324968EAD9FADEB
:1052C000249790878783F7018389D50119968C935A
:1052D00019978F5F838B80E81A968C931A9781E0D9
:1052E0001B968C931B971C968C931C9727968FADBF
:1052F00027971D968C93EDB7FEB7B4970FB6F89429
:10530000FEBF0FBEEDBFADB7BEB71196F50184E28B
:1053100001900D928150E1F7C7010E943B1E2DB70D
:105320003EB72C5D3F4F0FB6F8943EBF0FBE2DBF6A
:10533000E1C08DB79EB786970FB6F8949EBF0FBE9B
:105340008DBFEDB7FEB731969F01A30184E2DA016C
:105350000D90AD01D9010D929D018150C1F781E001
:1053600084A3BCC0D2014D915C91F70183859485E3
:105370004817590709F09AC026FF48C08DADD501DE
:105380008C93F1018081918112969C938E93119759
:1053900014965C934E93139716965C934E931597C1
:1053A00024968EAD9FAD249718969C938E93179755
:1053B000D70153968C915397F50181878F5F539650
:1053C0008C9380E8828781E08387848727968FADDE
:1053D000279785872DB73EB7245230400FB6F894F3
:1053E0003EBF0FBE2DBFADB7BEB7119684E2019090
:1053F0000D928150E1F7C7010E943B1E8DB79EB709
:1054000084960FB6F8949EBF0FBE8DBFD501F301F1
:1054100084E201900D928150E1F7D5011C966C91C8
:105420001C971A965C911A9719964C911997179692
:105430002D913C91189715968D919C91169798A354
:105440008F8F3AA329A34BA35CA36DA3C656DF4F4E
:10545000E881F981CA59D040DE01969670E0635F19
:105460007F4F6A0D7B1D02C081918D93E617F70770
:10547000D9F7EDB7FEB77E970FB6F894FEBF0FBE13
:10548000EDBFD70112968D919C911397ADB7BEB722
:105490001196FE017F962EE101900D922150E1F7C9
:1054A0000E946919EDB7FEB77E961FC02DB73EB7B3
:1054B000265230400FB6F8943EBF0FBE2DBFEDB759
:1054C000FEB731969F01A30184E2DA010D90AD0190
:1054D000D9010D929D018150C1F714A215A2C701F7
:1054E0000E94401FEDB7FEB7B6960FB6F894FEBF08
:1054F0000FBEEDBFD7011896ED91FC911997CA57D1
:10550000DF4F28813981C658D040E20FF31FA081B8
:10551000B181ED91FC9111970480F581E02DCD01D1
:105520000995882309F03AC8CB57DF4F3881C55811
:10553000D0403F5FCB57DF4F3883C558D040D701AD
:105540001A968C91CB57DF4FB881C558D040B81709
:1055500060F5EB2FF0E0EE0FFF1FCA57DF4FF98326
:10556000E883C658D04014E4412E512C4C0E5D1EE9
:10557000C1CF62962FAD6297C756DF4F2883C959B6
:10558000D040C856DF4F1882C859D04061968FADC1
:105590006197C856DF4F68817981C859D040680F3C
:1055A000711DC7010E945D22A5CFC356DF4F0FB604
:1055B000F894DEBF0FBECDBFCF91DF911F910F9149
:1055C000FF90EF90DF90CF90BF90AF909F908F9023
:1055D0007F906F905F904F903F902F9008950F9322
:1055E0001F938C010E948C22F801828193810E947A
:1055F000601991E089271F910F910895EF92FF9212
:105600000F931F93DF93CF93CDB7DEB76E970FB68F
:10561000F894DEBF0FBECDBFF82EE92E8B01CB0173
:105620000E94EF2A882399F0F801628173818E012C
:105630000F5F1F4FC8010E94A7192F2D3E2DC901D2
:10564000DC01F8018EE101900D928150E1F78F2D80
:105650009E2D6E960FB6F894DEBF0FBECDBFCF91D4
:10566000DF911F910F91FF90EF900895EF92FF92BD
:105670000F931F93CF93DF93EC010E945D22882349
:10568000F9F423C0CE010E94901E0E947E147B017B
:105690008C0188E99AE3A0E0B0E0E80EF91E0A1F49
:1056A0001B1F8B859C85892B59F40E947E146E15D7
:1056B0007F058007910720F4CE010E948C22F1CF54
:1056C0008B859C85892BF1F281E0DF91CF911F9131
:1056D0000F91FF90EF9008956F927F928F929F921B
:1056E000AF92BF92CF92DF92EF92FF920F931F93F0
:1056F0006C01CB014A013901F601138A1286880F29
:10570000991F0E942B14F6019187808788E090E012
:105710000E942E14B82EA92EB4010E94052DF60168
:10572000B082A18288E090E00E942E14B82EA92EAB
:10573000B3010E94061AF601B282A38284E090E0CF
:105740000E942E14B82EA92EB8010E941D1CF6012D
:10575000B482A58284E090E00E942E14182F092FB5
:10576000B7010E94AA1CF6011683078312A211A298
:1057700016A215A212A611A6148A1F910F91FF90CE
:10578000EF90DF90CF90BF90AF909F908F907F90E1
:105790006F9008950895CF92DF92EF92FF920F934A
:1057A0001F93CF93DF93DC017A01C22ED02E8D910F
:1057B0009C9111976817790709F487C08FEF6F3FA5
:1057C000780709F482C06115710509F47EC014964A
:1057D0000D911C91159720E030E040E050E01CC096
:1057E000FE01E40FF51FEA0126968081918186175C
:1057F000970779F485818D1508F467C0F382E282FA
:10580000C4821696ED91FC911797E40FF51FD5828F
:105810005CC02F5F3F4FAE011696CD91DC9117977C
:1058200020173107E8F212968D919C911397FC0195
:10583000EE0FFF1FE80FF91FEE0FFF1FEC0FFD1F0C
:105840007183608312968D919C911397FC01EE0FEA
:10585000FF1FE80FF91FEE0FFF1FEC0FFD1FF38274
:10586000E28212962D913C911397C901880F991FDE
:10587000820F931F880F991FC80FD91FCC821296D1
:105880002D913C911397C901880F991F820F931F87
:10589000880F991F1696ED91FC911797E80FF91F45
:1058A000D58212968D919C911397019613969C9395
:1058B0008E93129714962D913C911597821793070A
:1058C00020F013961C921E921297DF91CF911F9198
:1058D0000F91FF90EF90DF90CF900895CF93DF93DB
:1058E000DC01EB0114966D917C91159740E050E03E
:1058F00020E030E011C01696ED91FC911797E20F71
:10590000F31F808191812A5F3F4F8C179D0711F40F
:1059100081E006C04F5F5F4F4617570760F380E096
:10592000DF91CF910895CF93DF93DC01EB011496C3
:105930006D917C91159740E050E020E030E012C07E
:105940001696ED91FC911797E20FF31F2A5F3F4FD8
:10595000808191818C179D0719F42281338107C0C2
:105960004F5F5F4F4617570758F320E030E0C901FB
:10597000DF91CF910895CF93DF93DC01EB01149673
:105980006D917C91159740E050E020E030E011C02F
:105990001696ED91FC911797E20FF31F2A5F3F4F88
:1059A000808191818C179D0711F4848106C04F5F1F
:1059B0005F4F4617570760F38FEFDF91CF91089540
:1059C000CF93DF93DC01EB0114966D917C911597D9
:1059D00040E050E020E030E011C01696ED91FC91DF
:1059E0001797E20FF31F2A5F3F4F808191818C1739
:1059F0009D0711F4858106C04F5F5F4F461757071B
:105A000060F380E0DF91CF9108950F931F93CF93C0
:105A1000DF938C01DC0114966C93149715967C939C
:105A2000EB01CB01880F991F860F971F880F991FD5
:105A30000E942B14F8019783868320E030E080E0F9
:105A400090E00CC0D8011696ED91FC911797E80FE5
:105A5000F91F118210822F5F3F4F06962C173D07CA
:105A600088F3F80113821282DF91CF911F910F9179
:105A70000895FC01758364830895DC01ED91FC9128
:105A80001197672B21F40680F781E02D03C0028077
:105A9000F381E02DCD010995089544B1FC012481E5
:105AA00030E02850304081E090E002C0880F991F1C
:105AB0002A95E2F7482B44B9089502970E94612D78
:105AC000089544B1FC01248130E02850304081E049
:105AD00090E002C0880F991F2A95E2F780958423F1
